:020000040800F2
:1000000078080020A9010008F149000823470008EA
:1000100000000000000000000000000000000000E0
:10002000000000000000000000000000F54900088A
:100030000000000000000000F3490008F749000834
:10004000BB01000800000000BB010008BB01000864
:10005000BB010008BB010008BB010008BB01000890
:10006000000000003D220008BB010008BB010008A1
:1000700085200008BB010008BB010008000000004B
:10008000014A00080000000000000000BB01000859
:1000900000000000BB010008BB010008BB01000814
:1000A000BB010008BB010008BB0100082D5000087F
:1000B000BB0100080000000000000000000000007C
:1000C00000F002F800F061F812A030C808382418D7
:1000D0002D18AC4201D100F058F80FCCA246AB4627
:1000E0000CA730CF2D1B083F3F197C427F1E544484
:1000F0002D090426F441641EAC4201D300F045F8FA
:100100000126334200D0FB1A3343984754465D46DC
:10011000DFE7000098590000B8590000103A02D3F8
:1001200078C878C1FAD8520701D330C830C101D598
:1001300004680C6070470000704700000023002432
:1001400000250026103A01D378C1FBD8520700D30E
:1001500030C100D50B60704710B5662902D105F09B
:100160004FFB10BD642902D100F078F810BD0020CB
:1001700010BD1FB501F0C2FA04000020002105F0F7
:1001800051FAE0601FBD10B510BD01F0A3FE11468D
:10019000FFF7EFFF04F0BCFF01F0BBFE03B4FFF775
:1001A000F2FF03BC01F066FF07488047074800479D
:1001B000FEE7FEE7FEE7FEE7FEE7FEE70448054947
:1001C000054A064B70470000FF490008C1000008BF
:1001D00078020020780800207804002078040020AD
:1001E0000FB41CB5084B06AA7B44694600900598DD
:1001F00001F00FFA04460020694601F01DFA20467E
:100200001CBC08BC04B018474D14000070B504466F
:1002100085690068C10601D5302600E02026C007A8
:1002200007D070BD62683046A1689047206A401CC4
:1002300020626D1EF6D570BD70B5044685690078E4
:10024000C00707D170BD6268A16820209047206A6E
:10025000401C20626D1EF6D570BD0000F7B500256C
:1002600075291068009914A611D0C046C046002810
:1002700002DA404211A608E0009909688A0701D510
:100280000FA602E0490704D50EA6012501E0C046ED
:10029000C046009F0024243704E001F0D2F9303139
:1002A0003955641C0028F8D12B4632462146009867
:1002B00000F048FFFEBD0000000000002D0000001F
:1002C0002B00000020000000F3B50446002081B0A0
:1002D00020622046E168884700287AD0252802D08D
:1002E0006268A16871E0E1682046002588470646FB
:1002F0000020E0610746A0612A2E0AD0304605F0B2
:1003000074F9002827D0B8000019303E00908661AB
:1003100019E00298BA00121902C8916102902046B1
:10032000E1688847012F064617D1E06900281FDAE7
:10033000202085431CE000980A21806948430099E9
:100340008019303888612046E1688847064605F004
:100350004CF90028EFD1012F0AD02E2E08D12046CB
:10036000E16888470646202005437F1C022FC3DB37
:10037000A069002803DA4042A06101200543E80794
:1003800001D010208543002E23D030464138192853
:1003900003D80120C002054320362046256031469F
:1003A000029A1546FFF7D8FE00280BD0012806D088
:1003B000ED1DE808C000083002908AE709E02D1D15
:1003C000029586E762683046A1689047206A401C23
:1003D0007EE7206AFEBD01E004C0091F0429FBD2AC
:1003E0008B0701D50280801CC90700D002707047BE
:1003F00000290BD0C30702D00270401C491E0229FD
:1004000004D3830702D50280801C891EE3E7002203
:10041000EEE70022DFE70000002203098B4273D3DE
:10042000030A8B4258D3030B8B423CD3030C8B4201
:1004300021D312E003460B437FD4002243088B42B2
:1004400074D303098B425FD3030A8B4244D3030B5B
:100450008B4228D3030C8B420DD30902FF2212BA20
:10046000030C8B4202D31212090265D0030B8B429C
:1004700019D300E0090AC30B8B4201D3CB03C01A86
:100480005241830B8B4201D38B03C01A5241430B61
:100490008B4201D34B03C01A5241030B8B4201D351
:1004A0000B03C01A5241C30A8B4201D3CB02C01ABC
:1004B0005241830A8B4201D38B02C01A5241430A34
:1004C0008B4201D34B02C01A5241030A8B4201D323
:1004D0000B02C01A5241CDD2C3098B4201D3CB01CA
:1004E000C01A524183098B4201D38B01C01A524179
:1004F00043098B4201D34B01C01A524103098B427D
:1005000001D30B01C01A5241C3088B4201D3CB0067
:10051000C01A524183088B4201D38B00C01A52414A
:1005200043088B4201D34B00C01A5241411A00D2FA
:1005300001465241104670475DE0CA0F00D0494263
:10054000031000D3404253409C46002203098B42D3
:100550002DD3030A8B4212D38901FC2212BA030A5B
:100560008B420CD3890192118B4208D389019211DD
:100570008B4204D389013AD0921100E08909C30962
:100580008B4201D3CB01C01A524183098B4201D364
:100590008B01C01A524143098B4201D34B01C01A4F
:1005A000524103098B4201D30B01C01A5241C308C7
:1005B0008B4201D3CB00C01A524183088B4201D336
:1005C0008B00C01A5241D9D243088B4201D34B0051
:1005D000C01A5241411A00D20146524110466346A8
:1005E0005B1001D34042002B00D54942704763465F
:1005F0005B1000D3404201B50449002802DC491CCD
:10060000084000E00846C046C04602BDFFFFFF7F2D
:1006100070477047704700000246C80FC00781430B
:100620004B0030B54B405B009B0D20D01923DB06FF
:10063000C91801231B05994220DB0324A4070425C4
:100640001346AB400BD3002B04D1EB0613409B00A9
:10065000E34204D401246407002312195941FF2303
:100660001B0599420BD2C9000143500F09E0CB0290
:1006700004D501430803024305D0054830BDFF21DE
:10068000C905084330BD084607210905884330BD28
:100690000000C07FF0B50C46871A9C410D46861AB3
:1006A0009D4103D2C01BA141D21963410D0D1F0D05
:1006B000C94EEC1BAE435CD07F057F0D0026002F9A
:1006C00051D02D05AC46A943DD020123ED0A1B05DF
:1006D0001D4320231B1B24D41746E74038187141C3
:1006E0002F46E740CC199D402818314661410C0D3A
:1006F00027D161449A4013D50023401C5941520030
:100700000ED14008400001224B005205D34207D3CE
:1007100005204007C14201D5B04900E0B04930464C
:10072000F0BD6B00002A00D001229A181F23203C44
:100730001B1B01D5002302E0E540281871410C0D78
:10074000D7D0012424050919C407CD07400849085A
:10075000E40F28436144002CD5D00024401C6141A3
:100760009A40D0D1CDE76A05520DD9D1C90FC9073A
:10077000D5E79C4D4E00002801D0012400E0002464
:1007800034195F00002A01D0012600E00026BE19BE
:10079000954FAC420CD8AE420AD8B44206D00125DF
:1007A0006D05EC42BCD010461946F0BD9942FCD014
:1007B00000203946F0BDF0B51FB40C460F46811A33
:1007C0009F412546861A9D4106D20125ED076F40BF
:1007D000401ABC4152187B41210D1E0D8D1BAC46A9
:1007E0007D4D8D437ED075056D0D7CD00D05AE46DB
:1007F000AC431B031B0B794D52429D41202366469F
:100800009B1B14D31746F7403818002600907441FC
:1008100060462F460741E41900989D40281866411C
:1008200016D4714671189A4025D5012320E09318FB
:100830002A466A415200002B00D0521C1E23203E43
:100840009B1B002B61DD3541EE1728186641E8D56A
:10085000001876415B1C9A4000D3401C4B05F318EE
:100860001524E34010D3002B52D071467118D30FDA
:10087000C01802D3491C05B0F0BD0123DB079A4222
:10088000F9D140084000F6E701225205B21801D123
:10089000002853D00123CC0ADB029943891E002A89
:1008A00008D1020C03D0020C0004103902E0024609
:1008B000002020390023550B05D112020823550BC7
:1008C00001D152010D23550C01D112011B1DD50C74
:1008D00001D192009B1C150D01D152005B1C2025FB
:1008E000EE1A01E02CE022E00546F5401543984061
:1008F000CA1AE10769181305C918002ABBDA0320D0
:1009000040070818C10FC9070FE071466118B2E728
:10091000F10740080843711071444A000CD00123CC
:100920005B059A42A7D2C90FC9070020A3E7490572
:10093000490D26D1002001E00028F4D100219AE7DA
:10094000284D6600002801D0012100E00021711827
:100950005F00002A01D0012600E00026BE19224FC8
:10096000A94210D8AE420ED8B14208D001256D057B
:10097000E94206D01946A802414010467BE79C4256
:1009800001D0214677E70020394674E710B50C46C0
:100990005C4005D50124E4076340FFF70CFF10BD60
:1009A000FFF778FE10BD30B40C465C4004D501243E
:1009B000E407634030BC6DE630BCFCE670B5012452
:1009C000E40761400D465D4002D4FFF763FE70BD51
:1009D0006340FFF7F0FE70BDFF0700000000F0FF6E
:1009E0000000F07F0000E0FF0000F87FF0B5F94D57
:1009F0000C091E092C402E402F468BB0A7437DD0FA
:100A0000B543FCD0002E7AD0002CFCD00D465D40C2
:100A1000ED0F2543AC1BFF25AD0464190894C502F6
:100A2000440DC9022143500DDC0204430120C007DC
:100A300001430443D2020191200C110C00958C4615
:100A4000010423468B430A9161460904E24D8A431F
:100A50000991010A7D4449198039097805464D43B9
:100A600001266D18F605751B6943C90C640B891CBA
:100A70004C436418B5012C1B250C2E04B4434C4385
:100A80004D43210C691889090591009DE90701D0A2
:100A90000121C90704912C4601996708CD072F430E
:100AA0004C08059DE10B4D432D0C294666467543C8
:100AB00002950D4645432E46029D7D1BB44100958F
:100AC0000D465D4301942C0C2F040D465543AE4654
:100AD0002D0C3D43029503947546049C2D04641B24
:100AE000049406D2029C039D641C00267541039564
:100AF000029401AC70CC009F7D1B01E03EE162E1FD
:100B0000B44109040095079101940599A408614333
:100B1000090C0C464443650BE7040C4666467443D7
:100B2000A646640B3C43039502947446049DE4047A
:100B30002C1B049406D2029C039D641C0026754164
:100B40000395029401AC70CC009F7D1BB4410194CD
:100B50000C465C430095650FE7000C465443A646DF
:100B6000640F3C43039502947446049DE4002C1BDF
:100B7000049406D2029C039D641C002675410395D3
:100B8000029401AC70CC009F7D1BB441AE09AF064E
:100B9000049DC900AD092F43049DA406AD0604952C
:100BA000079D344369180791059DE10B4D432D0CBA
:100BB00029466646754302950D4645432E46029DDD
:100BC0007D1BB44100950D465D4301942C0C2F0410
:100BD0000D465543AE462D0C3D4302950394754694
:100BE000049C2D04641B049406D2029C039D641C87
:100BF000002675410395029401AC70CC009F7D1BCB
:100C0000B44101948C050694079C890A61180095EB
:100C10000791019C0599A4086143090C0D464543C1
:100C2000680BEF040D46644665436C0B3C43049F20
:100C3000ED047D1BAC4602D20025641C6841009E79
:100C4000019D371B85410846584301950C46460FC8
:100C5000C5005443600F28436546E4002C1B02D2B4
:100C60000025401C6E41019D3F1AB5412846BD0933
:100C7000800628438446A009BF064E020699A406B2
:100C800076180743079D002068410A990790194389
:100C90000020099B00906046FF1913434041E20F7A
:100CA00064003A43A4460446D71A8C41A04203D9B3
:100CB0000120009020463A46C70F941840416246F2
:100CC000D20F2243644664000494009CBE46640034
:100CD000D71AA446044602978C417746002F01D1CB
:100CE000A04204D96046401C8446029A2046C40FA4
:100CF000A64694184041049A0546D20F2243644602
:100D00006400D31A8D417146002901D1A84202D94D
:100D100028461A46641C10430122002800D01643BE
:100D200061020020079B891904465C410223002CC4
:100D300002DB491813466441089DCE0A2D145D1943
:100D40004B056705E10A2C050D1908993E43C907B3
:100D50006940002B08D0934006D30022761C5141F5
:100D6000002B01D1760876001C4A002D43DB15428A
:100D700041D0AA433FD030460BB0F0BD06180D4617
:100D80004D41174C7642AC411AD395181C465C4134
:100D9000134A6D42A24113D3012252054C00D442A2
:100DA0000AD15C00D4420BD04B4002D592021143D1
:100DB000E2E749004908DFE75940C90FC90718E0D1
:100DC00000200849D8E7054801420DD10342F7D079
:100DD000F2E700000000FF07B84D00000000F07FC0
:100DE0000000E0FF0000F87F114859400143C012A5
:100DF00041400020C0E70123089A9B069A4205DC87
:100E0000032252078918C90FC907B5E705225207FF
:100E10008918074A1143D2125140ADE770B5154603
:100E20001C4602460B4628462146FFF7DFFD70BDF3
:100E3000FFFFFF7FF0B58B4C0F09254689B0BD43FE
:100E40007BD01D092646AE43FAD00E465E402740B1
:100E5000F60F3E43254071D024012142FBD0FF24F0
:100E6000AD19A4042D1B039501252D05DB02DB0A1A
:100E7000C9022B43C90A29431E010901040F130F9C
:100E8000050121431701880B820391432D098C46EC
:100E9000A90B1E438A039543B30B9A0396433F095C
:100EA000BA0B9403A74302962E467E430497B64698
:100EB0004E19D7190C460196544305977E43371BAC
:100EC0007646BF1B3601B646BE0B361900967646EF
:100ED000BC043719009C01D3641C00946400002FEB
:100EE00001D001263443029E049F754366467E432B
:100EF0000496760034196E0034190094029C019E09
:100F00001C196643751BAE46069465464519059C3B
:100F100005956C43594375460891691A0191049EE1
:100F200001465143A41B0491611A009C0791E106FC
:100F300005D061090122114302E072E06EE061090F
:100F4000089D00272C0A2D066918049D7C412A0A59
:100F50002D066918019D6241AC0DAD026D1854411A
:100F6000079A910D920255196141029A64465843BD
:100F70005443069B059A5A43121A131B9A0E9B015F
:100F80005B187A41010B0005C3185141220A200663
:100F900044195A419A4200D2491C01204002814220
:100FA00003D315230226F64302E014230326F64357
:100FB0002020C51AA9401746AF40DA400A43204610
:100FC0000399D8400914731819055118039A384326
:100FD000D2075140AC4009D00122944006D30022F0
:100FE000401C5141002C01D1400840001E4A934250
:100FF00012D3012203989206904207DB0520400796
:1010000009181A480143C012414004E00320400778
:101010000818C10FC907002009B0F0BD0020F10772
:10102000FAE705180C464C4111486D42A04115D312
:1010300094181A465A410E48644290410ED301203A
:101040004A004005824209D35A00824206D35940E1
:10105000C90F084AC90700201143DDE700200649EF
:10106000DAE700000000FF07FE070000FFFFFF7F38
:101070000000E0FF0000F07F0000F87F0121C905BB
:101080000123411842001B06D3185B0E0AD0C11081
:101090000722D206891840075242D14201D5520098
:1010A00089187047090208D50146002A03D0C10FEC
:1010B000C9070020704710467047420202D0002046
:1010C00002497047072109050143F4E70000F87F52
:1010D0001F22030C02D10F2200041CD0030E01D1E9
:1010E0000002083A030F01D10001121F830F01D142
:1010F0008000921E002801DB4000521ED2055118CC
:10110000021251181922904004D3491C002801D121
:101110004908490008467047C10FC90700D040423E
:10112000012292071143D3E701218907D0E710B5C7
:1011300000F0E8FA006810BD10B5044600F0E2FACD
:10114000046010BDFFB504460D4681B02430009008
:101150002168880604D51022E0699143216000E0EF
:101160000120A84201DD471B00E000270498A16987
:101170007A191018081AA0612078C00602D42046F7
:10118000FFF744F8002608E003986268A168805DD4
:101190009047206A401C761C206204988642F3DB4C
:1011A0002078C0060AD52046FFF730F806E06268CE
:1011B000A16830209047206A401C206238467F1E7C
:1011C0000028F4DC07E000986268A168405D904761
:1011D000206A401C206228466D1E0028F3DC204651
:1011E000FFF72AF82078000602D5022005B0F0BDEE
:1011F0000120FBE7FFB50C461E468FB003CA0890DE
:1012000009914F007D0D00D16D1E00210846002080
:10121000C0460321099A89050840002A03DA8200A2
:10122000801840080840800D01280A9002DD002047
:10123000C0430A90089807430DD0F048F049281899
:1012400048430714189800281DD07542291E1DDD3B
:101250000A9842421BE01898012802D00020302151
:1012600004E00020F24305E02154401CB042FBDBC7
:1012700030460022189B002121540F998B600A6090
:10128000486013B0F0BDBD1B6D1CDFE70A9A002952
:1012900000DA69420BA800F0BBFA0BAB07CB03AB3B
:1012A00007C30899099800F01FFB6B4607C3014666
:1012B000D4480918002D00910BDDD24903980A9AF1
:1012C00049424018002303A90390684600F07CFDC2
:1012D00008E003990A9A0023081803A903906846B6
:1012E00000F01CFD6B4607C30004000C03D0002077
:1012F000C043410800E01046189A002A03D000229B
:10130000009215461EE0751E05D400F0FFF930323C
:1013100062556D1EF9D501220843079602D00022BE
:101320007F1C04E02078302801D100227F1E002A93
:10133000069787D01EE0112D07DA00F0E7F930326A
:1013400062556D1C02460A43F5D1084303D000984C
:10135000002819D00EE00021681E05E0235C625CC5
:1013600063542254401E491C8142F7DBA81B401ED7
:1013700007950690079A18990020A0540F98079B8C
:10138000069A81600CC07CE711260020189059E76E
:10139000D21DF0B50D460446D10893B0C90003C96B
:1013A0000C900D9104F000F902460D98C00F01D089
:1013B0002D2007E02068810701D52B2002E040079F
:1013C000C00F4001032A0F9001D0072A05DB034616
:1013D0002946204600F0D8F90EE12078800601D594
:1013E000E76900E006272846652D04D0662814D05A
:1013F000672D69D12DE00020112F009001DB112312
:1014000000E07B1C0CAA03A910A8FFF7F3FE1199BA
:10141000002610987D1C0E9142E001203B460CAA4C
:10142000C0070B900120009003A910A8FFF7E2FE6F
:10143000119D12981099002600280E9501D1781C54
:101440000D18781B02D446427D1C761EE81B0090C6
:101450003AE0012F00DA01270020112F009001DD72
:10146000112300E03B460CAA03A910A8FFF7C2FE17
:1014700011993D46109800260E91217809070BD44A
:101480000E99A94200DA0D4603A9012D04DD4A197F
:10149000203AD27F302A06D0B84201DA011D04DAA0
:1014A000012100910FE06D1EEFE7002802DC861994
:1014B0002D1A03E0411CA94200DD0D46801B401C93
:1014C00000900120C0070B902078000705D40098F9
:1014D000A84202DB0020C043009069460020C87289
:1014E0000B98012102AF0337C907884225D002209B
:1014F00010902B2011900B9800280BDA40420B9093
:101500002D20119006E00B9800F09BF830317F1EE3
:101510000B9039701099481E00291090F3DC0B983D
:101520000028F0D111987F1E38702088000501D561
:10153000452000E065207F1E387001A8C01BC01D3B
:101540000B900F98002800D0012041190098C01777
:1015500009180B980818A169081A401EA061207884
:10156000C00602D42046FEF751FE0F98002805D091
:101570006268A1689047206A401C20622078C006FB
:1015800025D52046FEF742FE21E0002E07DB0E980F
:10159000B04204DD03A86268805DA16802E0626871
:1015A000A16830209047206A761C401C2062009879
:1015B000401E002800900AD100F0A0F8C0686268C0
:1015C0000168405CA1689047206A401C2062284660
:1015D0006D1E0028D9DC07E062683878A1687F1C9E
:1015E0009047206A401C20620B99481E00290B90EE
:1015F000F2DC2046FEF720FE032042E601FCFFFF5E
:10160000104D0000E1DFFFFF01694A1C026108780C
:10161000704700B58FB002910021059105490193F3
:1016200079440391114604906846FEF74DFE0FB0D1
:1016300000BD0000E5FFFFFF0A681070521C0A6041
:10164000704701468008081A02091018020A10188B
:10165000020C1018C008820012185200891A01E00A
:10166000401C0A390A29FBD27047000030B5C30D6F
:101670001906214A090E31D0FF292FD000283ADB64
:1016800001025002014301207D33C34000D24908CA
:10169000012080071724091A2406490882102343D1
:1016A000FF252D064C00211A04D4891A02D45400B7
:1016B000201800E0214652085B19F3D51A2204468F
:1016C000944007D382068A4203D180218030884328
:1016D00000E08030C009D905081830BDFF2904D0CA
:1016E0004100FAD0C00FC00730BD410201D0104602
:1016F00030BD0028FCDAFAE70000C07F00487047E0
:101700003000002000487047100000200B4670B5E4
:10171000024689078008084319469D08141AA94102
:1017200025090807054308092C194841250A01061F
:101730000D43010A2C194141200C0D0428430D0CC6
:1017400000194D41002140194D41C0086907084367
:10175000E908840F8D002543840024184D41241985
:101760006D41121BAB4107E00925ED432C115219C5
:1017700063410024401C61411C460A250026551B7C
:10178000B441F1D270BD0000F8B51F4604460123F4
:101790000068DB02032601461840072A05DB002803
:1017A00001D017A506E017A504E0002801D016A572
:1017B00000E016A5102081432160A069C01E002F03
:1017C000A06101D0401EA0612046FEF71FFD002F42
:1017D00009D038466268A1689047206A401C2062A0
:1017E000C01C206206E0206AFAE762682878A168D7
:1017F0006D1C9047761EF8D22046FEF71DFDF8BD01
:101800004E414E006E616E00494E4600696E6600A4
:10181000F7B516468AB0334878446C4603467C33A5
:10182000C06F5A689B680DC42E487844763003AC6C
:101830000DC80DC43720C001081837211B30FEF732
:10184000F9FD05460C46803D1B3C02D56442012053
:1018500000E000200027099010E0E0070CD00C20E9
:1018600020497843794432464C394118684601236F
:1018700000F054FA6B4607C364107F1C002CECD1B7
:10188000184F7F442E3F16E0E80712D02001C01900
:101890000EC80691089307920068F04201D198198A
:1018A00008903246012306A903A800F037FA03ABDB
:1018B00007C36D10641C002DE6D10998002806D0DE
:1018C00032466946012303A800F07EFA05E00123B1
:1018D0003246694603A800F021FA0A9B07C30DB0FF
:1018E000F0BD000074400000034640000A4610B5F9
:1018F000400D0BD00121C9070F24A40200191C03BD
:1019000064082143540D2143D20207E00021012045
:10191000F2E7D40F490021435200401E0029F8DAB3
:10192000DB0FDB07184310BDFFB50D46144685B02D
:101930004868516803F01FFE00910190A868A168F3
:1019400003F019FE02910390A868616803F013FE8A
:10195000029A12188242029201D2012000E0002075
:10196000019A0B18D2180028019202D08A4202D99B
:1019700003E08A4201D2012000E00020009908180B
:1019800000906868A16803F0F6FD029A121882427E
:10199000029201D2012000E00020019A0B18D21817
:1019A0000028019202D08A4202D903E08A4201D281
:1019B000012000E0002000990818009028682168A4
:1019C00040004900400849084018FA49471814E007
:1019D00001994000C90F0843009001980299400006
:1019E000C90F08430190029803994000C90F0843AA
:1019F0000290039840007F1E039000980028E7DAC9
:101A00000898002801D0EC4E00E00026B74201DA29
:101A1000012000E00020002804902AD0F71BF806DF
:101A2000C00E15D0029B2021091A039A8B401A433D
:101A30000392029A019BC2408B401A430292019A80
:101A4000009BC2408B4000991A430192C140009113
:101A50007B110DD06F460320C11A03D500218200EF
:101A6000B95003E08A008100BA587A50401EF3D57D
:101A7000374603980299002800D0012001430898B6
:101A80000291002808460CD0002800D001200199BE
:101A9000019A490508430121D20AC902D2020192E2
:101AA00000E001210E9B0122D207012B02D0002B66
:101AB00003D013E0002807D120E0904204D89042E0
:101AC0000CD1019B0B4209D0019B5918019105D102
:101AD0000099491C009101D17F1C009200280DD073
:101AE000102108460020C0460498002806D00F9810
:101AF000002803D0082108460020C0462868216835
:101B0000019B009A4840C10F0598C90739430EC090
:101B100009B0F0BDFFB587B0099A089808995368D5
:101B20009268406889689646002203931746944657
:101B3000089A12685300099A5B081268520052080A
:101B40009A1A9E4BD4180A9A002A01D0352200E036
:101B5000402206920022012315460492DB070593DA
:101B600024E0002D05D175460346039E4D1BB3416D
:101B700009D375466646039B491B049D9841059B06
:101B80007519AC465F4163463B4308D0059B049EF4
:101B9000DD0776082E435B080496059301E0521E8C
:101BA000641EC50FED0749184041521C069B9A421E
:101BB000D7DB002D04D17546039A6B1A824101D2FE
:101BC00003200CE0039A0B466B404240134303D0C2
:101BD000014303D0012002E0022000E00020614622
:101BE00001910021009702910A99002905D06146D0
:101BF00040020143704B019102E0800700230290F4
:101C00009C4201DA012000E0002007003AD01A1BB4
:101C1000D006C00E15D0029D2021019C091AC54096
:101C20008C402543029C8C4000D001242543019C1C
:101C30000295009DC4408D4000992C430194C14001
:101C4000009154111DD06D460221002202290CD1B1
:101C50000320001B07E0002804DB8600AE59002E9D
:101C600000D00122401C0328F5DB081B02D58800A8
:101C70002A5004E08000285810438A00A850491ECA
:101C8000E3D51C460A98002802980CD0002800D002
:101C900001200199019A490508430121D20AC9028C
:101CA000D202019200E00121109B0122D207012BF8
:101CB00002D0002B03D013E0002807D11FE0904290
:101CC00004D890420CD1019B0B4209D0019B5918BA
:101CD000019105D10099491C009101D1641C009229
:101CE00000280CD0102108460020C046002F06D046
:101CF0001198002803D0082108460020C046089803
:101D00000999019A009B006809684840C10F07982B
:101D1000C907214382600AC00BB0F0BD00B585B091
:101D2000019300920A460146002302A8FFF7FCFD3A
:101D300002A807C805B000BDFFB50A461F4685B01A
:101D40000799019301230091014602A8FFF7ECFDDA
:101D500002990398049ECA0F4900D20700920F22ED
:101D6000490892028C1A0021002800DB0C4645002D
:101D700013486D08844214D3079A002A04DA441EDB
:101D80000026104DF64302E004460D460E46102193
:101D900008460020C046002F03D00421084600203A
:101DA000C0462005E90A0843009908436905F20A7C
:101DB0001143ADE602C0FFFF013C0000FF3F000001
:101DC000FF070000FFFFFF7F00B585B00193009281
:101DD0000A460146002302A8FFF79CFE02A807C896
:101DE000A8E7FFB50A461F4685B00799019301236E
:101DF0000091014602A8FFF78DFE02990398049E08
:101E0000CA0F4900D20700920F22490892028C1A89
:101E10000021002800DB0C46450011486D08844273
:101E200014D3079A002A04DA441E00260D4DF64307
:101E300002E004460D460E46102108460020C0462A
:101E4000002F03D0042108460020C0462005E90ADF
:101E50000843009908436905F20A114358E6000057
:101E6000FF070000FFFFFF7F10B5FF231B064400A4
:101E70009C421DD84C009C421AD80346124A0B4380
:101E800007D4401A02D3EFF3008010BDEFF30080B7
:101E900010BD081A03D3EFF30080904305E0EFF381
:101EA000008001219043C907084380F3008810BDDA
:101EB0000D231B041A4204D01146002000F08AF8BA
:101EC00010BD00F09FF810BD000000900048704762
:101ED000100000207546FFF7F9FFAE460500694681
:101EE0005346C008C000854618B020B5FEF766F915
:101EF00060BCB64600260027C0C5C0C5C0C5C0C569
:101F0000C0C5C0C5C0C5C0C5403D490849008D46D3
:101F1000704710B50446C046C0462046FEF73EF95D
:101F200010BD000082078B079A423FD170B5920F17
:101F30000AD0032402780B78401C491C002A33D0B5
:101F40009A4231D12042F5D1214EF40104C808C98A
:101F5000951B9543254018D19A420FD104C808C952
:101F6000951B9543254010D19A4207D104C808C952
:101F7000951B9543254008D19A42E7D012BA1BBA67
:101F800001209A4200D2404270BD12BA1BBA2DBA4B
:101F900018241000E0401900E140401A05D12E003D
:101FA000E64002D1083CF4D1D01A70BD02780B781B
:101FB000401C491C002A09D09A4207D102780B78AC
:101FC000401C491C002A01D09A42EFD0D01A704719
:101FD00001010101C80212D54803400F002804D0B6
:101FE000C803C043012188407047EFF3008000011F
:101FF000000903210907084380F300887047002087
:102000007047000010B5024800F004F810BD000051
:102010000000C07F10B50C461107090F092904D034
:102020000A290AD008290CD104E011460820FFF73C
:10203000D1FF06E0510606D501E0510601D5012089
:10204000C007214610BDD10607D501010909CC08FA
:102050004907000E0006044309E0410F200249072A
:10206000000A0143200E00061D22D141014308460B
:10207000E7E7000001491820ABBEFEE7260002009A
:102080007047000080B5024800F0F2FA80BDC046FB
:10209000D4000020B0B50146806A836D826D502463
:1020A000234206D0D20610D4006D426B08469047FA
:1020B000B0BD01214B021A4382650268D3681B053B
:1020C0009B0F05D000F0C4FAB0BD00F0D0FAB0BD4F
:1020D000837E002BF6D113681B07F3D593685B074B
:1020E0000AD40346583354680C25AC435460FF248B
:1020F00002341A68A24306E0826D202313438365ED
:1021000003465C33C26D0A431A6000F0A1FAB0BD09
:1021100080B5806A816D40220A438265C16D0422C8
:102120000A43C26500F0A3FA80BD80B5806A00F062
:102130009DFA80BD70B505460068816882680024FC
:10214000D20726D00222114023D1816805220A40FD
:10215000012A16D181689C4A0A40911C81600321A2
:10216000016000F0DFFF064628688068C00710D0D5
:1021700000F0D8FF801B0328F6D328688068C007CA
:10218000F2D0A86D10210143A965E86D0124204318
:10219000E865204670BDC046F0B581B00546002414
:1021A000009400688168C9071AD18168864A2F3275
:1021B000114208D0A86D10210143A965E86D0124E2
:1021C0002043E8650CE081687F4A114001273943CC
:1021D00081607F480068000205D4687E01280FD125
:1021E000204601B0F0BD13480068134903F0C8F859
:1021F000401C009000980028EFD00098401EF8E79F
:1022000000F090FF064628680168C907E8D1816898
:10221000C90704D181686C4A11403943816000F0DC
:1022200081FF801B0328EED328680068C007EAD12D
:10223000C0E7C04600000020400D030080B5024802
:1022400000F038FD80BDC04638010020EFF310805B
:1022500072B6FEE7F0B589B0044600260896542011
:10226000205C012802D1022009B0F0BD254654357A
:1022700001272F702046FFF75DFF21688B68A26D54
:10228000DB074FD10397049581235B009A43921C8F
:102290000694A265CA68CB68494D1D40CD60494B84
:1022A000134001930A46B4320592474C474D3746D6
:1022B00002968B682340E31818338B608B68002BE1
:1022C00006D5089B5B1C0893089BAB42F6D32FE016
:1022D000059A13687F2213409E197F1C082F3A4CE1
:1022E000E7D11746059088682040012203921043E9
:1022F0008860F0080A69920F27D10F229204CE4B12
:102300001B6813409A0C072A1FD3D21E0123934047
:102310000793079A52080792079A002A15D0079A3E
:10232000521EF8E710210A432E70A26509B0F0BDD5
:10233000002004990870069A906D10210143022034
:1023400081439165039809B0F0BDB4228B58BB431B
:1023500003438B508868204002252843886000F0A2
:10236000E1FE0446069800688168C907029E10D104
:10237000C168019A1143C160069CA06D012202430D
:10238000AA430598049DCFE7069800688168C907AD
:10239000EED000F0C7FE001B0328F5D306980068B6
:1023A0008068C007F0D0069A906D102101439165B6
:1023B000D06D03990843D065084609B0F0BDC0460A
:1023C000FC7FFFFF03800000E8FFFF7F00F20200B8
:1023D000082701407047704770477047F0B587B0D5
:1023E000002406945422825C012A01D10222E6E0F4
:1023F0000546543501222A7003689E68760725D465
:1024000006694A68022A26D1042006438848864283
:1024100007D18648C0430A68D2430243986A1040F5
:1024200098620B680022002B00D4C7E08248016844
:10243000834EB34200D1B8E0824EB34200D1B1E046
:102440007E4EB34200D0B9E00523AFE0816D20237A
:102450000B438365B2E0059204273E43744A9642DB
:1024600040D10868714A10409A6A02439A625869DA
:102470000E6832029043896811406E4A0A40024356
:102480005A610022002E00D498E0012005906A4F86
:102490003B68072080051946049001406748864242
:1024A00068D10598C0051F460740634F62D11646A4
:1024B0003A68049B9A4311430143396062480068BB
:1024C000624902F05DFF0C2141430C3106910698F0
:1024D000002805D00698401E069006980028F9D1DD
:1024E00032466BE01F26059A16400F220092049692
:1024F000B240066E0192964303960A684B4E3242F2
:1025000002924CD0D207264661D1029EB20759D41E
:10251000720759D4320759D4F2063E4657D4029E68
:10252000B2066AD472066AD432066AD4F2056AD454
:10253000029A920569D4029A520568D4029A120549
:1025400067D4029AD20466D4029A920465D4029A9D
:10255000520464D4029A1204009E38D4029AD20320
:102560005FD4029A92035ED4029A5203D2171226C3
:1025700016402CE03248864203D10598000681427D
:1025800006D33048864219D105988005034015D1FD
:102590003B68049EB3431943014339600EE0520087
:1025A000D60E14E00323DB0501E003239B0519404D
:1025B00007239B0506689E43711801602C70104626
:1025C00007B0F0BD012602E0022600E00326049FCA
:1025D000BE40039A16430666059A9208C069904267
:1025E00000D844E70198C0439A6A024002988000EC
:1025F000000FB8401043986239E70526E7E7062642
:10260000E5E70726E3E70826E1E70926DFE70A26EC
:10261000DDE70B26DBE70C26D9E70D26D7E70E26EC
:10262000D5E71026D3E71126D1E7C046FFFF070004
:102630000400008000FFFF0708270140001000B0E1
:10264000004000B8002000B400000020400D03004E
:1026500000680449884200D0704703480121017096
:102660007047C04600240140D000002070477047EA
:10267000F0B585B004460068036802251946294074
:102680004A424A414668304628404142414111434E
:1026900004930DD1A06DC00604D40120C002A16D29
:1026A0000143A1652046FFF796FE20680560049B64
:1026B000012204213140484248415907114600D5C2
:1026C000014657020129039209D1082131404842AD
:1026D00048411907114600D50146002930D120464E
:1026E0005830A16DC90602D40168394301602168E0
:1026F000CA681205920F1BD1A27E002A18D10A685F
:10270000120715D58A68520708D44A680C239A43E1
:102710004A60FF2202320168914306E0A06D202149
:102720000143A16520465C30E16D01220A4302604D
:102730002046FFF78DFF20680C210160049B039A5F
:1027400001958025314629404842484119061146E5
:1027500000D50146029700290BD101200004A16D8C
:102760000143A165204600F077F9039A049B206895
:10277000056001252F023146394048424841D905BC
:10278000114600D5014600290AD16804A16D014314
:10279000A1652046FFF720FE039A049B206807608E
:1027A0003146029F3940484248413B42114600D0E1
:1027B000014600290AD1A804A16D0143A165204664
:1027C000FFF70BFE039A049B206807601027314631
:1027D000394048424841D906114600D501460029F2
:1027E00015D1206B002803D02068C06880070CD06A
:1027F000A802A16D0143A165E06D01990843E06560
:102800002046FFF734FF039A049B206807606D039E
:102810002E4070427041990403D4002A04D005B0C0
:10282000F0BD0246002AFAD12046FFF7D3FD20680A
:10283000056005B0F0BD0000F0B589B00446002089
:102840000890002C61D00790A06D002807D1254684
:102850005435204600F002F900202870E065012779
:102860003D072668B068C00012D4B06874490140C2
:102870002943B16073480068734902F081FD40004C
:10288000801C08900898002802D00898401EF8E79D
:10289000B068284208D1A06D10210143A165E06D08
:1028A000012107910843E065B06804210140A26D51
:1028B000102002405118A16D2AD105900F20C2436B
:1028C0000692F33A1140891CA165B168C90779D114
:1028D000039027462037216B4A1E91410A03A168C5
:1028E000237E9B030B43617EC9031943A57E6803C6
:1028F0000843E368034313430120C2072169002909
:102900000490029209DA914308E0012009B0F0BD79
:102910000143A165384609B0F0BD41050B43387B42
:1029200042001A43387801280DD1002D08D0A06D3F
:1029300020210143A165E06D04990843E06502E0B0
:10294000049800040243636A002B06D0072080012C
:102950000340A16A1943114300E01146F0683B4A65
:1029600002400A43F2600320850763681A462A4042
:10297000E16C387F01280ED1206C0090676CA06C50
:102980000190009807430198074317430F430498A9
:1029900007433A4600E00A43039F30692C4901404F
:1029A00011433161029883420CD0AB420AD00498A3
:1029B0008007834206D0B804034026490A68824350
:1029C000D0180860706907229043676B38437061C4
:1029D000706970218843A16B09010143716121690C
:1029E00001235805814205D000290ED1B06A06990D
:1029F000084309E0B06AE06980001C301C210140F6
:102A0000069D8D40206E2843B06270691040B84228
:102A10000AD10020E065A06D01210143022081431D
:102A2000A165079809B0F0BDA06D05990843022182
:102A30008843A065E06D1843E065184609B0F0BD15
:102A4000E8FFFF6F00000020400D03000102DEFFE1
:102A500002FCFF1F0827014070470000F0B58DB051
:102A600000260C960B960A960996089607960696E7
:102A70000596049603960296026828498A4201D078
:102A80000DB0F0BD00900127B8070690B803029082
:102A900002A800F0FBFB002801D0FFF7D7FB3805A8
:102AA0001F49CA680243CA60CA680240019201987D
:102AB0000868384308600868384001900A96032087
:102AC0000990FF20089001980524200708A900F02C
:102AD00053FA144D2E622020F9027A028023124FFD
:102AE0002F606C60AE60EE602B616A61A961E86185
:102AF000284600F04FF9002801D0FFF7A7FB009807
:102B0000A86205650C24002120460A4600F074FBEB
:102B1000204600F065FB0DB0F0BDC046002401402A
:102B2000341002403801002008000240F0B581B0A6
:102B30000468A56802236D0740D45425455D012D26
:102B40003CD0009117460546543501262E70E168A9
:102B5000C9070AD1A168C90704D0A168194A0A4067
:102B6000911CA160E1683143E1600446FFF714FB6A
:102B700003460028009A21D1A06D1349014030027C
:102B80000818A0650020E06521681C230B602870F0
:102B9000206D0E4B0E4D0F4EC662056343634B68AE
:102BA00010251D434D6040313B4600F06FF9034650
:102BB00020688168034A0A40111D8160184601B0EF
:102BC000F0BDC046E8FFFF7FFEF0FFFF11210008C7
:102BD0002B2100089520000870B500282AD0014656
:102BE00024314A78022A27D1046822680E239A43A6
:102BF0002260426C15682E4B1D401560256801222D
:102C000095432560046C1C2525401446AC40D14DED
:102C10002E6826432E60846CC56C6560046D002CA4
:102C200005D025681D402560436D806D58604A7051
:102C3000002004E0012070BD0422C26301200022B4
:102C40000A7070BD70B5014624314A78022A2BD132
:102C500003681A680E24A2431A601C680122944378
:102C60001C60446C2568124B1D402560046C1C25BB
:102C700025401446AC40B74D2E6826432E60846C28
:102C8000C56C6560046D002C05D025681D4025606D
:102C9000436D846D5C6000240C704A70816B002968
:102CA00000D08847204670BD0421C163012070BD5B
:102CB000FFFEFFFFF0B585B0A649091F0E68026848
:102CC0001368042502932B405F425F410490046C1B
:102CD0001C232340294699400C4603963440604209
:102CE0006041384331D0019201210227029E3046D3
:102CF0003840444244419F40039D2F420A4600D041
:102D0000214604980446243400292FD00820064088
:102D100077427741DD40280700D53A46002A23D183
:102D2000019A10680E2188431060012529469940B8
:102D3000884802680A4302600498C5630021217034
:102D40006570416B00290ED10EE01068800602D438
:102D50001068A84310607F4A106808431060049808
:102D6000016B002900D0884705B0F0BD019B1968B0
:102D7000890605D41A680A218A431A600121617004
:102D800000212170734A116839431160C16A00291A
:102D9000E9D1E9E7F0B587B000285ED004460146E6
:102DA0002431022006914870276838683249014072
:102DB0003960324E30468030A064314838181425CE
:102DC000294602F0DDFA80008119206405916164D2
:102DD000FC2038400838294602F0D2FA1F2202406F
:102DE000012005469540E564A168039126460C360E
:102DF0004ACEA2690192E2690292226A04920B43CE
:102E0000334301990B4302990B4304990B433968EF
:102E10001943039A11433960064681038A4201D15E
:102E20000021616061683F230B4005980360154AEB
:102E30001560481E032813D8581E8100511800231E
:102E4000CB67BC3203230340304698407C31216578
:102E50006265A0650C49086006E0012007B0F0BD7E
:102E6000002020656065A0650020E0630699087079
:102E70004E7007B0F0BDC0460F80FFFF0008024053
:102E8000F8FFFDBF8408024044090240F0B582B05B
:102E900004462420205C012802D1022002B0F0BDAB
:102EA000174625462435012028706A78012A2DD13D
:102EB000022068700020E06325682A6801260196D8
:102EC000B2432A60A26CE66C5660226D0092002A22
:102ED00002D0626DA66D5660226C1C261640019AC7
:102EE000B2401C4E366816431A4A16606B60A368DF
:102EF000102B3A4600D00A46AA60102B00D0394663
:102F0000E960216B002907D00E210AE00021297019
:102F10008021E16302B0F0BD296804229143296059
:102F20000A212A680A432A6001990902626C13681F
:102F3000DB0302D513680B431360009B002B02D008
:102F40001A680A431A602968019A1143296002B07D
:102F5000F0BDC04604000240B0B5044600F0E2F8FF
:102F60000546601C02D091480078041900F0DAF898
:102F7000401BA042FAD3B0BDF0B58BB008900C68EE
:102F8000002C00D1B9E05E48089A824201D00520A9
:102F900000E0032001902032009200231F461D46CE
:102FA00009930A93049110E02043574A10600A9A4B
:102FB000521C0C6820460A92D040099A08320992A5
:102FC0003F1DAD1C002800D197E0012602960A980B
:102FD000864034400594EAD0496803220C461440E8
:102FE000601E01280797069213D81046A840089F34
:102FF000BA6882430498C068A8401043B860C80605
:10300000C00F0A9988407A68B24302437A60069AF0
:10301000079F032C0499089B1DD01046A840DA682E
:1030200082438868A8401043069AD860022C12D1C7
:103030001C2038400F2181400A9AD2089200009F3C
:10304000BC588C4304990E69864026430499BE50AF
:10305000069A079F089B1046A8401C68844348684E
:10306000860303961040A840204318600398800F01
:103070009DD00A989043234A1418276E0520000714
:10308000089A82420AD02148824205D020488242D2
:10309000019E04D1022602E0029E00E000261820D4
:1030A000099A10400F2282409743603486403E4385
:1030B0002660144800684E68F20202D5059C204341
:1030C00001E0059CA043079F0E4A10605068B202C1
:1030D00001D5204300E0A0430A4A50600A484068F6
:1030E000B20301D5204300E0A043074A50601068B6
:1030F000F20300D558E7A04357E70BB0F0BDC04638
:10310000000C0050001802408018024000040050DB
:1031100000080050002A02D018228150704728224F
:1031200081507047054800687047C0461F480078C6
:1031300002490A68101808607047C04674020020EF
:1031400010B50124200208490A6802430A600320DE
:1031500000F00CF8002801D0204610BD00F02AF83D
:103160000024204610BDC04600200240B0B50546F0
:103170000E4801780124002916D07D20C00002F0FD
:10318000FFF801463F48006802F0FAF800F092FCB0
:10319000032D09D8002807D10024E0432946224600
:1031A00000F02AF8024805602046B0BD0400002067
:1031B0000800002082B009484168012211434160A3
:1031C0004168114001910199110702680A430260A8
:1031D000006808400090009802B070473C10024020
:1031E000002805D41F2108400121814001480160C9
:1031F0007047C04600E100E0002805D403220346E2
:1032000093430A4A9A1803E00C220240064BD21854
:103210008007C00E8901C9B28140FF238340106836
:10322000984308431060704714ED00E000E400E0AC
:10323000F0B581B00146032460026E4D2A688243D6
:103240000A432A60012253020020994214D1EE4918
:1032500009686B695B050FD5960206224A430A4945
:103260000746104602F08CF801463846891C491E74
:1032700004D06A693242FAD101B0F0BD204601B0F3
:10328000F0BDC0460000002040420F00F0B587B0FE
:10329000064680788007564F01D4002064E00496EB
:1032A00001221107203F38680840039006D1386892
:1032B00008433860386808400690069801970291E4
:1032C000059217024B4C206838432060FFF72AFF15
:1032D000054626683E4006D1FFF724FF401B032821
:1032E000F7D3032000E00020002E414F01D1049EBF
:1032F00032E0032529023A680A40049E22D073690D
:103300009A421FD03A68059B1B043C681C433C60F2
:103310003C689C433C6013468B433B60D10711D013
:103320002C460590FFF7FEFE0546334E38688007B1
:1033300006D4FFF7F7FE401BB042F7D3204600E06B
:103340000598049E002807D10320000239688143B4
:1033500070690843386000200399002904D1019B5B
:103360001968029A914319603168CA0707D03A4632
:10337000083A13680324A34374681C43146005903F
:103380008A0608D5032212033B46083B1C68944377
:10339000B26822431A6001204B0412D53B46083B19
:1033A0001C68164D2C403246366934431C606B1C39
:1033B0009E42164605D103043C46503C25681D43F9
:1033C0002560090510D5810303239B033C46083C77
:1033D00025689D43F3681D4325608B4204D1010499
:1033E000503F3A680A433A60059807B0F0BDC046BE
:1033F0005C1002400070004089130000FFFFFF3F97
:10340000F0B583B00D4601460120002900D1ABE0A4
:10341000029101907148006807273840A84213D2F2
:103420006E490868B843284308606D4CFFF77AFE80
:1034300006466A4800683840A84205D0FFF772FE89
:10344000801BA042F5D9AAE0029B186881078F4C27
:103450000CD5410703D5390322680A4322600F21A6
:10346000090222688A43996811432160C00718D174
:103470005A4800683840A8422AD958490868B843D1
:1034800028430860564CFFF74DFE06465348006837
:103490003840A8421CD0FFF745FE801BA042F5D95A
:1034A0007DE05968032900D982E0880001A2125802
:1034B00001989746C5340008A53500085F35000817
:1034C0006D3500082246083A1268520551D44BE087
:1034D000029A107840076D4C05D538032168814366
:1034E000D0680843206020688006400F1FD0226803
:1034F00038210A406648082A20D022680A40102A4B
:103500005BD1616803220A40032A00D061486168E8
:103510004906490F491C01F033FF61684904490E0F
:1035200048436168490F491C01F02AFF06E0204624
:10353000083800688004410F5648C840216889094E
:103540003C220A40274989581F220A40D0402E4970
:10355000086025480068FFF709FE03B0F0BD224669
:10356000083A1268920104D403B0F0BDA26D92072C
:10357000FAD52068B84308432060FFF7D3FD06461C
:1035800020683821014002984068C000814200D183
:103590006EE7FFF7C7FD801B11498842F0D9032071
:1035A00003B0F0BD2246083A12689203DCD5E0E78A
:1035B000606D80070198D7D5DBE720680840202898
:1035C00002D10120C003B9E720680840182801D0C3
:1035D0000020B3E77D200002B0E7C0460020024093
:1035E00088130000245A00080800002006480068DC
:1035F00026490968890A1C220A40044989581F2261
:103600000A40D0407047C04600000020645A0008BD
:1036100010B51E4C20688006400F06D02268382165
:103620000A401B48082A07D110BD083C20688004C6
:10363000410F1848C84010BD22680A40102A15D111
:10364000616803220A40032A00D0124861684906D3
:10365000490F491C01F094FE61684904490E484332
:103660006168490F491C01F08BFE10BD20680840BD
:10367000202802D10120C00310BD2068084018286E
:1036800001D0002010BD7D20000210BD08100240B6
:1036900000127A000024F400F0B587B0012700285A
:1036A00000D1F4E1049705900078C007F94E1ED1CF
:1036B0000598007880073AD405980078000767D409
:1036C00005980078400700D46AE1B06838210140CD
:1036D000202900D0B2E0F06D800700D45DE10598AC
:1036E0008068002800D058E10020012756E1B0682A
:1036F000F16803273A468A433821014010204840A8
:1037000082185042504108294FD000284DD13068CE
:1037100005994B68052109048B42039300D1BFE052
:1037200001210A04934200D0C2E01043C5E0B16811
:103730003820084010214140F26803252A40022326
:103740005340CA18514251410127BC02002836D0CB
:10375000002934D103953068059AD168002900D139
:10376000C8E00721C902884311690143316038026A
:10377000316801433160FFF7D5FC054630682042CF
:1037800000D0C8E0FFF7CEFC401B0228F6D9C0E00D
:10379000B06838210140182939D1306E80078FD5A3
:1037A0000598806900288BD126E13068800300D419
:1037B0007EE705984068002800D079E71CE1316871
:1037C0002142059B03D0D968002900D15FE17F2108
:1037D000090272688A43596909021143716000281D
:1037E0000DD10720C0023168814318690843306059
:1037F00030688004400FA849C140A8480160A8482B
:103800000068FFF7B3FC002800D040E154E7306EB9
:1038100005998969002900D187E0012108433066B4
:10382000FFF780FC0546306E800700D548E7FFF7BC
:1038300079FC401B03270228F5D928E101200390D9
:103840000107F06B0840029006D1F06B0843F0636B
:10385000F06B0840069006980191924F3868C005B9
:1038600010D403980402386820433860FFF75AFCEC
:1038700005463868204205D1FFF754FC401B02285A
:10388000F7D978E0F06D05998F68052F5ED0012F8C
:1038900060D003998843F065F06D042188435BE0B4
:1038A00001218A041043306009043068084304E0B1
:1038B00090433060890430688843306001204404BC
:1038C000FFF730FC0546039800280FD030682042EF
:1038D00000D0EDE6FFF726FC401B6428F6D9D6E0C1
:1038E000FFF720FC401B642800D9D0E0306820425C
:1038F000F6D1DDE6390288433060FFF713FC054658
:103900003068204200D1D7E6FFF70CFC401B0228AC
:10391000F6D9039FBBE07F200002716881430598C0
:103920004069000208437060C6E6012188433066A2
:10393000FFF7F8FB0546306E800700D4C0E6FFF7BE
:10394000F1FB401B03270228F5D9A0E0042108431E
:10395000F065F06D03990843F065FFF7E3FB05465A
:10396000514C002F0FD0F06D80070FD4FFF7DAFB1A
:10397000401BA042F7D9002003270FE0FFF7D2FB3E
:10398000401BA042F7D8F06D8007F7D402980028BA
:1039900003D1F06B01998843F0630120002876D0B1
:1039A0000598C769002F71D0B068382101401029EF
:1039B00024D1012F20D0F06803210140059B1A6A11
:1039C000914219D1702101405A6A914214D17F214C
:1039D000090201409A6A120291420DD11F21490445
:1039E0000140DA6A914207D1072149070840196B63
:1039F0008842049F4AD04AE0049F48E001210A0619
:103A0000306803929043306004914C06FFF78AFBC4
:103A10000546022F09D13068204210D0FFF782FB03
:103A2000401B03270228F6D931E03068204229D014
:103A3000FFF778FB401B03270228F6D927E0F06840
:103A40001B490140059F2037ADCF084310431902A1
:103A5000014329433943F1603068039908433060DA
:103A600004980007F1680143F160FFF75BFB05462E
:103A7000306820420AD1FFF755FB401B032702287C
:103A8000F6D904E0F06809490140F1600027F8B276
:103A900007B0F0BD001002400024F4000000002038
:103AA000080000200070004088130000FCFFFEEFBB
:103AB0008C80C11F401E010E01D0012070470749B4
:103AC000074A5060074803680B40032189075918CB
:103AD000016000209060072111607047FFFFFF0028
:103AE00010E000E020ED00E07047704770470000F4
:103AF000F0B53C22825C012A01D10220F0BD0246D1
:103B00003C320223537001231370006846688468B6
:103B1000634DA84201D0374604E00F273F05BE435E
:103B20004F6837437026B7430E683E434660A8424D
:103B300002D05C4DA84204D18025AC438968214362
:103B40008160002010705370F0BDC046B0B50028F1
:103B500019D005463C356978002905D10021297026
:103B6000044600F05DF820460221697001680C6887
:103B70004B4A914202D04B4B994206D170239C4351
:103B80008368234302E00120B0BD2346204CA142BC
:103B900008DD91420CD01F4CA14209D01E4CA1421D
:103BA00006D033E03F4CA14202D01C4CA1422DD1A3
:103BB00003242402A34304691C4380239C43836998
:103BC00023430B60C368CB6243688B62914205D08C
:103BD000104A914202D0104A914201D140690863D3
:103BE000012048610A69D20702D00A6982430A614A
:103BF0002873A870E87028716871A871E87128723C
:103C00006872A872E87268700020B0BD1C46D4E7E4
:103C1000FF2B0140004801400044014000200040CB
:103C200010B582B000681F49884201D002B010BDB3
:103C300009480168022211430160006810400190A8
:103C400001981024002120460A46FFF7D5FA2046A5
:103C5000FFF7C6FA02B010BD3C1002403D21415CA6
:103C600001291AD101463D3102220A7001680C482F
:103C7000814202D00B48814209D188680A4A024039
:103C80000020062A08D001231B049A4204D00868A9
:103C9000012202430A600020704701207047C0469D
:103CA000002C01400004004007000100F0B53C2258
:103CB000825C012A01D10220F0BD02463C3202237F
:103CC0005370012313700568A868494C0440AC6028
:103CD0000E6800244F2E1EDC1F2E36DD202E38D01D
:103CE000302E36D0402E00D080E0286A2E6A012780
:103CF000BE432E62AE69F027BE43CF683F01374313
:103D0000AF610A26B043496801432962A86839496E
:103D10000140473165E06F2E23DD5803864251D0C4
:103D20001803864220465ED0702E5FD1FF2000022D
:103D3000AE68864348688F68C968074308023843FD
:103D40003043A860A86877214AE0002E01D0102EE9
:103D50004CD1A868274901400E4307203043A86092
:103D600040E0502E19D0602E40D1286A2E6A1027CC
:103D7000BE432E620F263603AF69B743CE683603C3
:103D80003E43AE61A026B043496809010143296260
:103D9000A86818490140673123E0286A2E6A9E43CB
:103DA0002E62AE69F027BE43CF683F013743AF6153
:103DB0000A26B043496801432962A8680D490140B9
:103DC00057310EE0FF200002AE68864348688F68D6
:103DD000C9680743080238433043A8609803A968BC
:103DE0000143A960204614705370F0BD1846FAE7ED
:103DF0008800CEFF88FFCFFF70470000F0B583B08A
:103E000004460068C5680227294639404A424A41AB
:103E10000169029139404B424B41134313D16C4924
:103E2000FE310161012121778069800703D020469E
:103E3000FFF7E2FF05E0204600F0CEF8204600F054
:103E4000CCF8002020770126042229461140484260
:103E5000484102994907314600D501460320000236
:103E60000190002916D1009220685949FC31016166
:103E7000277780690199084203D02046FFF7BCFFED
:103E800005E0204600F0A8F8204600F0A6F8002043
:103E90002077009A0827294639404842484102992C
:103EA0000907314600D50146002913D12068484949
:103EB000F83101612277C069800703D02046FFF7FF
:103EC0009BFF05E0204600F087F8204600F085F8CB
:103ED0000020207710212940484248410299C90614
:103EE000314600D50146002914D120683849F03107
:103EF00001612777C0690199084203D02046FFF786
:103F00007BFF05E0204600F067F8204600F065F8EA
:103F10000020207701212940484248410299C907E1
:103F2000314600D00146002906D120682849FF31DA
:103F30000161204600F052F880272F4078427841F6
:103F40004121C901029A0A42314600D001460029A6
:103F500005D120681F4901612046FFF7C6FD784260
:103F600078410299C905314600D50146002905D19D
:103F70002068174901612046FFF7B6FD402129401E
:103F80004842484102994906314600D50146002978
:103F900006D120680E49C0310161204600F01FF8AB
:103FA00020200540684268410299890603D4002E0A
:103FB00004D003B0F0BD0646002EFAD120680449B3
:103FC000E03101612046FFF791FD03B0F0BDC0462E
:103FD000FFFEFFFF7FDFFFFF7047704770477047AE
:103FE000B0B58421415C012901D10220B0BD014658
:103FF000843124224A600268136814680125AC43A6
:1040000014606C07A34313600022426610460A70D6
:1040100020224A60B0BD704770470000F0B581B003
:1040200004466834227F012A02D1022001B0F0BD8B
:104030000546883524222A60066832680092336873
:10404000012293433360227707235B06B7689F43BF
:104050000F43B760406E002815D0B768B068400FB6
:104060002E49095C2E4A105CC00001F089F960807D
:104070003801400F2949095C294A105CC00001F051
:104080007FF9024600E062800098306022800020C4
:1040900020772021296001B0F0BDC046F0B581B085
:1040A00004466834227F012A02D1022001B0F0BD0B
:1040B0000546883524222A600668326800923368F3
:1040C000012293433360227707235B07B7689F433E
:1040D0000F43B760406E002815D0B768B068400F36
:1040E0000E49095C0E4A105CC00001F049F960807D
:1040F0003801400F0949095C094A105CC00001F011
:104100003FF9024600E06280009830602280002083
:1041100020772021296001B0F0BDC046A45A0008D4
:104120009C5A00087047704770470000F0B589B08E
:1041300008900668F169202401200790C302184600
:104140002F3008403568B26820280BD1284620401F
:104150000F46194601231B071340C0180B4639466A
:1041600000D0A4E006920494029318460F30084051
:10417000089B8033059300282B46039509D0EC4813
:104180001840012427077D1C069A1540281800D0E6
:1041900096E0102718463840454245410898C06EC1
:1041A0000128079A144600D12C46C806104600D5AF
:1041B000204600283AD00125AB05069C23405842F2
:1041C0005841CB02134600D50346002B00D1EEE048
:1041D000080607D58020039B1840EB051C400019FA
:1041E00000D0A0E14024039B2340584258414B0695
:1041F000134600D50346002B00D180E1AB0703989E
:104200000340584258410B02134600D50346002B89
:1042100000D18FE10398002800DB90E10025C80160
:1042200000D58FE1002A00D18FE191E1089C5C3438
:104230003762B068400600D5C0E061882288608897
:10424000002800D184E18A4200D181E1EFF310809F
:104250000790012383F31088092045010898066818
:104260003468AC433460079C84F31088EFF3108407
:10427000079483F310880568AE68B64C3440AC6090
:10428000079C84F31088059C049DE5600024446726
:10429000C466EFF3108483F3108803681D68BD4380
:1042A0001D6084F3108802230367511AD1E0089837
:1042B000416F002900D14BE10898884709B0F0BD53
:1042C000019722462002184044424441C807079FF4
:1042D000384600D02046002804D13262059B186978
:1042E00010431861069C1440604260418B073B46B6
:1042F00000D50346002B09D10220306205980369DE
:1043000000930423009F3B43079F03616042604189
:104310004B073B4600D50346002B059C05D10420E6
:1043200030622069022303432361080709D50398FB
:10433000049B1840054304D00820306223690343DE
:1043400023619306039D2B4058425841029B19421A
:1043500000D00746002F174604D133622069049A23
:10436000104320612069002800D1F1E00498014049
:104370000BD00699019A114005400D4305D00898CD
:10438000416F002901D008988847059C20692822A0
:1043900002400898006880684021084080185DD17C
:1043A0000898FFF7C1FE0020206109B0F0BD280584
:1043B00030620898FFF7B7FE09B0F0BD05980068B5
:1043C000006841688AB2002A00D1C1E023889A427D
:1043D00000D3BDE061800068800634D4EFF3108222
:1043E000012181F310885D4B2033089805682E6801
:1043F0001E402E6082F31088EFF3108281F3108844
:1044000003689D688D439D6082F31088EFF31082EE
:1044100081F3108803689D684026B5439D6082F350
:104420001088059B049ADA600022C266EFF31082BE
:1044300081F3108800680168B943016082F3108835
:104440001868FEF7C9FB0221089801672188628875
:10445000891A89B2FFF7DFFD09B0F0BDEFF31080D4
:104460003E4687F3108809225201089B1C68256884
:104470009543256080F31088EFF3108087F3108850
:104480001A689468334D2540956080F31088D86E83
:1044900001280BD1EFF3108287F310880898006889
:1044A00003681024A343036082F31088059C0498DA
:1044B000E0600020089AD066506710688068400667
:1044C00018D5EFF3108287F3108808980068836886
:1044D0008B43836082F31088216800290AD01E482C
:1044E00088630846FEF7AEFB002831D005980068C7
:1044F000816BE2E60898FFF717FE09B0F0BDEFF315
:10450000108185F31088089802681368A34313602C
:1045100081F31088002181670599049A8A6000F070
:10452000FFF809B0F0BD0898816F002910D0C3E6EC
:10453000200100040898FFF7F5FD09B0F0BDC8019F
:1045400000D46FE62A46002A02D10898FFF764FDDE
:1045500009B0F0BDFEFFFFEFA94B0008DFFEFFFF33
:10456000B0B500281ED0044605468435686800288A
:1045700004D100202870204600F02AF8242068602A
:10458000206801680125A9430160A06A002802D0C3
:10459000204600F03DFA204600F012FB002803D030
:1045A0002846B0BD0120B0BD0920C00221684A687C
:1045B00082434A6088682A22904388600868012202
:1045C00002430A60204600F08DFA05462846B0BD39
:1045D000B0B58CB000240B940A9409940894079405
:1045E00006940594049403940294019400681B4972
:1045F000884201D00CB0B0BD02940125019501A8FC
:10460000FEF744FE002801D0FDF720FEC048C16837
:104610000B95AA031143C160C16811400091009934
:104620000168294301600068284000900A940994B9
:104630000220089003204002079000980520000700
:1046400007A9FEF799FC1B25284621462246FEF7BE
:10465000D3FD2846FEF7C4FD0CB0B0BD00380140C4
:10466000F0B581B08823C358202B10D10123002935
:104670000ED0002A0CD0856801242603B5420AD149
:10468000CB0708D00369002B05D1234600E00223A5
:10469000184601B0F0BD07465437009404468834EC
:1046A0007A800023A3603A8001658367212121601D
:1046B000009C6107426E8A4212D1B54202D1016963
:1046C000002920D015498167EFF3108184F3108809
:1046D000E205006884681443846081F31088D7E79A
:1046E000B54202D1016900290FD00A498167EFF371
:1046F000108184F3108800680268802414430460E9
:1047000081F31088C4E70449DDE70149EEE7C046BC
:104710004D4D0008214E0008A94D0008794E0008B3
:104720007047FEE7F0B585B02C214448002646547A
:10473000C66408210191C16186760683042540493B
:104740000127BA02031D1E777B05FC0452C00660D8
:10475000436085601146C0318161C2610496039651
:1047600002960C38014630310E7306634663866349
:10477000FEF762F8002801D0FDF768FD0496039665
:1047800002972E4802A9FDF729FE002801D0FDF767
:104790005DFD03952B480290284802A9FDF71EFEF7
:1047A000002801D0FDF752FD0198039026480290A1
:1047B000224802A9FDF712FE002801D0FDF746FDB0
:1047C0000C200390214802901C4802A9FDF706FE28
:1047D000002801D0FDF73AFD102003901C480290FC
:1047E000164802A9FDF7FAFD002801D0FDF72EFDBD
:1047F0001420039017480290104802A9FDF7EEFD1F
:10480000002801D0FDF722FD1820039012480290E5
:104810000A4802A9FDF7E2FD002801D0FDF716FDC8
:104820001C2003900D480290044802A9FDF7D6FD14
:10483000002801D0FDF70AFD05B0F0BDD40000202E
:104840000024014002000004040000080800000CDD
:104850001000001020000014400000188000001C10
:1048600010B582B009480168012211430160006857
:104870001040019001980924002120460A46FEF7C5
:10488000BBFC2046FEF7ACFC02B010BD3810024065
:10489000F0B587B000240694059404940394029420
:1048A0001B480168012529430160016829400191E5
:1048B00001990168022211430160016811400191D0
:1048C00001990168082211430160006810400190BD
:1048D00001981048072739462246FEF71BFC0E4870
:1048E000032631462A46FEF715FC059404940395E9
:1048F000029702AF07483946FEF73EFB0594049441
:104900000395029604483946FEF736FB07B0F0BD22
:104910003410024000040050000C005010B588B064
:104920003A48002484611649164A174B03604260D6
:104930008460C16004610794069405940494039410
:1049400002940194FFF702F9002801D0FDF77EFCE4
:104950000120000304902D4804A9FFF7A7F90028BF
:1049600001D0FDF773FC039420200190274801A992
:10497000FFF7BEF8002801D0FDF768FC08B010BDB5
:10498000CF070000FF3100000004004010B51748B9
:1049900000210C22E34B0162416281624B2424021C
:1049A00018C0016041608160C260016141610838E6
:1049B000FFF7D6FD002801D0FDF748FC0B48002189
:1049C000FFF76CFB002801D0FDF740FC07480021F1
:1049D000FFF724FB002801D0FDF738FC0348FFF760
:1049E000FFFA002801D0FDF731FC10BDE0010020E6
:1049F000FEE77047704780B5FEF798FB80BD7047B3
:104A000080B50248FFF7FAF980BDC0469401002046
:104A1000B0B5816A0A070CD4CA0714D18A071CD41E
:104A20004A0724D4CA062CD48A0634D44A063CD475
:104A30004CE00122D20303685C689443826B2243FA
:104A40005A60CA07EAD00122520403685C689443A2
:104A5000C26A22435A608A07E2D50122120403681F
:104A60005C689443026B22435A604A07DAD50122FC
:104A7000920403685C689443426B22435A60CA06FE
:104A8000D2D50122120303689C689443C26B22436F
:104A90009A608A06CAD50122520303689C6894432F
:104AA000026C22439A604A0610D50122130502685F
:104AB00054689C43456C2C4354609D4206D10323AB
:104AC0005B0554689C43836C23435360090607D5F8
:104AD0000121C904026853688B43C06C18435060BD
:104AE000B0BD0000F0B583B004460646843600270A
:104AF000F760FEF717FB03462068006800071ED525
:104B000028480090012002904105002220463D46A1
:104B10001F4600F0E7F93B462F4600280FD0EFF381
:104B20001080029981F3108821680A6880239A43D3
:104B30000A6080F310880320202288212EE020685C
:104B40000068400723D5174800900125A9050022D9
:104B5000204600F0C7F9002819D0EFF3108085F344
:104B6000108809214901226813688B43136080F380
:104B70001088EFF3108085F3108821688A68AA43B3
:104B80008A6080F31088032020228C2106E02020F8
:104B90007060B060E76670213A4638466250377000
:104BA00003B0F0BDFFFFFF0180B5806A01465631BA
:104BB00000220A8156214252FFF7B6FA80BD00005A
:104BC000F0B581B0044600680168534A0A40A16804
:104BD00023690B4365691D431543E1690D43056076
:104BE0000322120343689343E2681A434260A269B6
:104BF000236A13438268494D15401D438560C26A8C
:104C00000F239A43636A1343C362454A904209D013
:104C1000444A904208D1444800688007000F43A2EC
:104C2000135802E0002300E01023264668360125D1
:104C3000EA034248914211D1082B62D80027C046AE
:104C40007B441B795B009F44045C265C1B5C5C5CC2
:104C50002500FEF7CBFC00281FD149E0082B55D8D2
:104C60000027C0467B441B795B009F44044F2D4FB7
:104C70000E4F4F4F2C00FEF7B9FC002826D137E02D
:104C8000FEF7C6FC002808D132E0FEF7C1FC002880
:104C90001CD12DE0104600282AD0616A4900284A1C
:104CA000515A00F06DFB400061684A08101800F08E
:104CB00067FB0246103A23498A421AD20140000794
:104CC000400F084312E01046002811D0616A4900E5
:104CD0001B4A515A00F054FB61684A08101800F052
:104CE0004FFB01461039174A914202D22168C86031
:104CF0003D461548306000206067A067284601B037
:104D0000F0BD002001270028C7D1F1E700200127CE
:104D10000028DBD1ECE7C046F369FFCFFFF4FF11B9
:104D200000440040003801405410024000000000E0
:104D30000400000002000000080000000024F4004D
:104D4000845A0008F0FF000001000100B0B588217E
:104D5000415821290FD1014656310A88002A0BD02B
:104D6000026D13882D4C1C4003689C62921C0265E6
:104D70000888401E0880B0BDEFF31081012282F345
:104D8000108803681C688025AC431C6081F3108880
:104D9000EFF3108182F31088006802684023134308
:104DA000036081F31088B0BD70B588214158212976
:104DB0001AD1014656318A8A002A15D0174B02E0D3
:104DC000521E140410D00C88002C0ED00468E56923
:104DD0002D06F5D5056D2E881E40A662AC1C046517
:104DE0000C88641E0C80EBE770BDEFF3108101228C
:104DF00082F31088D3050468A5689D43A56081F3FC
:104E00001088EFF3108182F3108800680268402355
:104E10001343036081F3108870BDC046FF0100009A
:104E2000B0B58821415821290DD1014656310A8853
:104E3000002A09D00268036D1C7894625A1C02652E
:104E40000888401E0880B0BDEFF31081012282F374
:104E5000108803681C688025AC431C6081F31088AF
:104E6000EFF3108182F31088006802684023134337
:104E7000036081F31088B0BDB0B588214158212965
:104E800004D1014656318A8A002A03D1B0BD521E90
:104E90001304FBD00B88002B0CD00368DC692406BC
:104EA000F5D5046D25789D62631C03650B885B1E38
:104EB0000B80ECE7EFF31081012282F31088D30519
:104EC0000468A5689D43A56081F31088EFF3108105
:104ED00082F310880068026840231343036081F363
:104EE0001088B0BDF0B585B004930F460446006845
:104EF000C0690840401A414241410020914200D01F
:104F000090E0164602902046843001900A9D0120D0
:104F10000090C002039007E02068C0693840C01BC1
:104F200041424141B14247D1681CF5D0FEF7FAF841
:104F300001460320002D00D174E0049A891AA94289
:104F400000D96FE0206801684907E5D5402FE3D01C
:104F5000802FE1D0C169090731D4C169039A114298
:104F6000DAD003990162EFF31080012282F31088F6
:104F70000921490123681D688D431D6080F3108855
:104F8000EFF3108082F3108821688B68264D1D4056
:104F90008D6080F31088E36E03202021012B39D12E
:104FA000EFF3108382F31088226815681026B5434A
:104FB000156083F310882DE0029805B0F0BD08213C
:104FC0000162EFF31080009E86F3108809225201DF
:104FD00023681D6895431D6080F31088EFF31080EF
:104FE00086F31088226893680F4D1D40956080F30A
:104FF0001088E06E01280CD1EFF31082012080F3BD
:10500000108823681D681026B5431D6082F3108840
:1050100000E030462022019B9A600022E26662672F
:105020001A70D96005B0F0BDFEFFFFEF80B5D24821
:10503000FFF77CF880BDC046F0B587B00C46059000
:1050400000252E4605984059615900F071FBFCF788
:1050500015F802460B46FBF7EDFE07460691304673
:10506000FCF70CF802460B4638460699FBF78EFC17
:10507000FBF7D2FA06462D1D402DE3D1304600F055
:10508000BBFA0746403400200121019003E0403480
:10509000491C042939D00694049102900397019F7A
:1050A0003C46059800590699095900F041FBFBF769
:1050B000E5FF02460B46FBF7BDFE06460D463846A9
:1050C000FBF7DCFF02460B4630462946FBF75EFC49
:1050D000FBF7A2FA0746241D402CE2D1069C384675
:1050E00000F08AFA0746039E314600F073FA05463F
:1050F0003846314600F06EFA002D00D137460028C0
:1051000004990846C3D10298C1E707B0F0BD00007A
:1051100098B0FEF715F80BAC34212046FBF779F96F
:1051200000260A9609960896079601256802FEF75A
:105130007FF8680717900320400416900820159008
:105140001496022513951295402010900F96192061
:105150000701384690380E900B952046FEF79CFAD2
:10516000002803D0EFF3108072B6FEE706970A9688
:10517000099607200790089507A82946FEF740F9E9
:10518000002803D0EFF3108072B6FEE7FFF780FB34
:10519000FFF766FBFFF7C6FAFFF7C0FBFFF7F6FB6A
:1051A0006748FDF757F86748FEF758FD03E02846C3
:1051B0006430FDF7D1FE01260024634F38463146A6
:1051C0002246FDF7A7FF0225384629462246FDF76D
:1051D000A1FF0421384604912246FDF79BFF5B485E
:1051E000314632465D4E5C4FFDF794FF57482946E5
:1051F0002246FDF78FFF08225148554D2946FDF7FD
:1052000095FC0698FDF7A8FE52480078012815D1B4
:10521000504804702859FBF787FFFBF72FFF3A46E9
:105220003346FBF707FE00224D4BFBF7DFFBFBF796
:10523000F3F94C490851241D202CEBD101213546AE
:10524000002642480C463246FDF764FF02213F48E3
:10525000039105942246FDF75DFF082238483C493A
:10526000FDF764FC0698FDF777FE3A4800780128C0
:1052700018D100243748047035480059FBF754FF13
:10528000FBF7FCFE3A462B46FBF7D4FD0022344BDD
:10529000FBF7ACFBFBF7C0F9324909190862241D82
:1052A000202CE9D12F4D2F46344606E0C820FDF7CB
:1052B00053FE2D1D641C102C19D0129611961096B9
:1052C0000F960E960D960C960B962868FBF7D6FE59
:1052D000009001910BA824A12246FAF781FF012832
:1052E000E4DB82B20BA92448FFF7BAF9DEE73846BF
:1052F0002249FFF7A1FE0328069D00D957E7800049
:1053000001A1085805998746335300083D5300080A
:10531000315300081953000801240B4E3046214632
:105320002246FDF7F7FE022130462246FDF7F2FE47
:10533000049901220448FDF7EDFE38E70399F8E7E8
:10534000D40000209401002000040050000C005004
:1053500070000020D00000206666666666660A401F
:1053600000F4AF4090000020494E25643D25312EC9
:1053700033660D0A00000000E001002024590008F7
:1053800043088B421AD3002203098B4279D3030AC4
:105390008B425ED3030B8B4242D3030C8B4227D349
:1053A0000902FF2212BA030C8B4202D31212090225
:1053B00003D0030B8B4233D31AE0D3E0411A804170
:1053C000401C704703460B4371D443088B42F5D30E
:1053D000002203098B4254D3030A8B4239D3030BB7
:1053E0008B421DD3030C8B4202D394466EE0090A14
:1053F000C30B8B4201D3CB03C01A5241830B8B42A8
:1054000001D38B03C01A5241430B8B4201D34B0390
:10541000C01A5241030B8B4201D30B03C01A5241F5
:10542000C30A8B4201D3CB02C01A5241830A8B427A
:1054300001D38B02C01A5241430A8B4201D34B0263
:10544000C01A5241030A8B4201D30B02C01A5241C7
:10545000CDD2C3098B4201D3CB01C01A524183097B
:105460008B4201D38B01C01A524143098B4201D3B5
:105470004B01C01A524103098B4201D30B01C01AE0
:105480005241C3088B4201D3CB00C01A524183085A
:105490008B4201D38B00C01A524143088B4201D387
:1054A0004B00C01A5241411A524110007047CA0FB6
:1054B00000D04942031000D34042534000229C4692
:1054C00003098B422DD3030A8B4212D38901FC229C
:1054D00012BA030A8B420CD3890192118B4208D372
:1054E000890192118B4204D3890137D0921100E0D7
:1054F0008909C3098B4201D3CB01C01A52418309E8
:105500008B4201D38B01C01A524143098B4201D314
:105510004B01C01A524103098B4201D30B01C01A3F
:105520005241C3088B4201D3CB00C01A52418308B9
:105530008B4201D38B00C01A5241D9D243088B420F
:1055400001D34B00C01A5241411A00D201465241C8
:10555000104663465B1000D34042704763465B10C1
:1055600000D3404201B50021004201D0C9430846A2
:10557000C046C04602BDF8B5040C8BB2264682B2C6
:105580005E43104658430D0C370C36040021801939
:10559000164679416E43370C360480192646794108
:1055A0006E438919F8BD00004900CA020243100089
:1055B00000D004204A0D01D001221043044A490DB5
:1055C000914201D102210843012800D105207047F2
:1055D000FF07000010B500F081F8EFF300808000B5
:1055E00001D4012010BD002010BD30380A2801D29E
:1055F000012070470020704770B50546FCF736F86B
:1056000041000446FF204908C005411AC90F07D0D0
:1056100069004908401AC00F02D10120FBF78CFD38
:10562000204670BD10B500290AD00878002807D0A0
:1056300005487844FCF776FC002801D0002010BD16
:105640000248784410BD00009A0400009204000053
:1056500070B50125ED0704004C4020D4441A01D256
:10566000001B0919C60D4B00F2B2FF2A29D01B0EF0
:105670002CD000020C0228432C43D31ADC4005191D
:1056800010D2280A02D3401C6D0611D0761EF605F2
:105690008019FF2A00DA70BDC00DC00570BD6940D9
:1056A00000F04CF801200543C541521C761CE8E788
:1056B00064089C40C90161408900E7D10124A043EE
:1056C000E4E71B0E440200D0034870BD002AFCD161
:1056D000C00FC00770BD00BF0000C07F0123DB0505
:1056E00002000A430DD4DA4203D49A4207D4884216
:1056F0007047D84214D4D94212D4884270478042AD
:105700007047DA4203D59A42F9D5814270475B006F
:105710004200DA4204D24A00DA4201D281427047A2
:1057200010B5024AFCF7A0FB10BD00BF090016042B
:1057300070B50125ED0704004C4022D4441A02D272
:105740006C40001B0919C60D4B00F2B2FF2A4BD06A
:105750001B0E50D000020C02A8432C43D31ADC408D
:10576000051B05D5AD0019D36D08761E521E37D026
:10577000F605280A01D2801970BD70416D0603D06C
:1057800070BD6940FFF76AFF9C4009026140490013
:1057900001D0401E70BD0124A04370BD6D081DD016
:1057A00001202B0C01D12D0410302B0E01D12D0224
:1057B00008302B0F01D12D01001DAB0F01D1AD0021
:1057C000801CEB0F01D16D00401C361A121A6D00BF
:1057D000680AF5054019012A02DB70BD002070BD82
:1057E000C036300AC00770BD1B0E440201D1FF2B2A
:1057F00000D1024870BD002AF0D070BD0000C07F0B
:1058000003B402487844844603BC604789BBFFFF69
:1058100080807F7E7D7C7B7A7978777676757473ED
:10582000727171706F6E6E6D6C6C6B6A6A696868AC
:10583000676666656464636362616160605F5F5E42
:105840005E5D5D5C5C5B5B5A5A59595858575756B8
:10585000565555555454535352525251515050501D
:105860004F4F4F4E4E4D4D4D4C4C4C4B4B4B4A4A6F
:105870004A494949484848474747474646464545B3
:1058800045444444444343434342424242414141EC
:1058900002400000000000A00000000005400000E1
:1058A000000000C8000000000C4000000000409C08
:1058B00000000000194000000020BCBE00000000F5
:1058C00034400000BFC91B8E00000004B54000003A
:1058D000504BCFD06607E2CF010000006C410000C2
:1058E0003E8251AADFEEA73401000000D942000039
:1058F000DCB5A0E23A301F97FFFFFFFFB445000080
:10590000FD25A0C8E9A3C14FFFFFFFFFFF3F000037
:105910000000008000000000FF3F00000000008049
:1059200000000000739D46409F76484021CD4840CE
:105930008B544840CA154A40908841405BCE454050
:105940004AEF4740F3714940F7923E4059FA3040E0
:10595000959F48401D034A40959A214082FF194077
:1059600067D547407F4C49407EC54640015149407C
:105970000E694840946C3840C0E7D33FFC1B294077
:1059800006114840F4514940272FF63F6A6A0A4001
:10599000812647408A764840A7E640402A70094061
:1059A0002A724340814349400BEB4240F4C32540F7
:1059B0006F1243403A034A4052F2054070281840A3
:1059C0001BBB1E401CCD47406DAB2E40198C9B3F2E
:1059D0009566424084843D406B45FD3FD53E024084
:1059E0009D4C2E40D82D4940C49348403C834940AB
:1059F000785F484088304A407DB249402BFA4840A1
:105A00009DD548400B7B4940A72248401310484091
:105A10008E21494043014A40B29D4940965D48402D
:105A20006213494000000000000000000000000078
:105A30000000000000000000000000000000000066
:105A40000000000001000000020000000300000050
:105A5000040000000600000007000000080000002D
:105A6000090000000000000000000000000000002D
:105A70000000000001000000020000000300000020
:105A800004000000010002000400060008000A00F3
:105A90000C00100020004000800000010101010303
:105AA000070100000804020408010101E85A000887
:105AB00000000020100000001C010008F85A000837
:105AC00010000020680800003C0100081C000000D5
:105AD00043000000F8FFFFFF0C0000000E00000074
