:020000040800F2
:10000000780800208D010008053F0008F33B000838
:1000100000000000000000000000000000000000E0
:10002000000000000000000000000000093F000880
:100030000000000000000000073F00080B3F000820
:100040009F010008000000009F0100089F010008B8
:100050009F0100089F0100089F0100089F01000800
:1000600000000000B11B00089F0100089F0100086C
:10007000AD1900089F0100089F0100080000000062
:10008000813F000800000000000000009F01000800
:10009000000000009F0100089F0100089F01000868
:1000A0009F0100089F0100089F010008B946000851
:1000B0009F01000800000000000000000000000098
:1000C00000F002F800F053F80CA030C808382418EB
:1000D0002D18A246671EAB4654465D46AC4201D180
:1000E00000F045F87E460F3E0FCCB646012633425F
:1000F00000D0FB1AA246AB4633431847E449000040
:10010000044A0000103A02D378C878C1FAD85207DE
:1001100001D330C830C101D504680C6070470000BD
:100120000023002400250026103A01D378C1FBD813
:10013000520700D330C100D50B60704710B5662957
:1001400002D104F0F7FB10BD642902D100F078F869
:1001500010BD002010BD1FB501F074F80400002090
:10016000002104F0D1FBE0601FBD10B510BD01F00F
:10017000ABFB1146FFF7EFFF04F0FEFA01F0C3FB03
:1001800003B4FFF7F2FF03BC01F008FC0748804707
:1001900007480047FEE7FEE7FEE7FEE7FEE7FEE76B
:1001A00004480549054A064B704700007F3F000898
:1001B000C1000008780200207808002078040020A0
:1001C000780400200FB41CB5084B06AA7B4469468E
:1001D0000090059801F009F804460020694601F0F6
:1001E00017F820461CBC08BC04B01847411000009A
:1001F00070B5044685690068C10601D5302600E067
:100200002026C00707D070BD62683046A1689047BD
:10021000206A401C20626D1EF6D570BD70B5044684
:1002200085690078C00707D170BD6268A168202089
:100230009047206A401C20626D1EF6D570BD0000FC
:10024000F7B5002575291068009914A611D0C0468D
:10025000C046002802DA404211A608E00099096869
:100260008A0701D50FA602E0490704D50EA601258D
:1002700001E0C046C046009F0024243704E000F09F
:10028000CCFF30313955641C0028F8D12B4632465A
:100290002146009800F041FDFEBD00000000000076
:1002A0002D0000002B00000020000000F3B50446E4
:1002B000002081B020622046E168884700287AD07B
:1002C000252802D06268A16871E0E1682046002517
:1002D000884706460020E0610746A0612A2E0AD022
:1002E000304604F041FA002827D0B8000019303E0B
:1002F0000090866119E00298BA00121902C8916153
:1003000002902046E1688847012F064617D1E06930
:1003100000281FDA202085431CE000980A2180690C
:10032000484300998019303888612046E168884741
:10033000064604F019FA0028EFD1012F0AD02E2E1C
:1003400008D12046E16888470646202005437F1CE7
:10035000022FC3DBA069002803DA4042A06101201C
:100360000543E80701D010208543002E23D03046F6
:100370004138192803D80120C00205432036204601
:1003800025603146029A1546FFF7D8FE00280BD0AB
:10039000012806D0ED1DE808C000083002908AE769
:1003A00009E02D1D029586E762683046A1689047F6
:1003B000206A401C7EE7206AFEBD01E004C0091FE0
:1003C0000429FBD28B0701D50280801CC90700D00D
:1003D0000270704700290BD0C30702D00270401C86
:1003E000491E022904D3830702D50280801C891E7E
:1003F000E3E70022EEE70022DFE7002203098B4259
:100400002CD3030A8B4211D300239C464EE00346B3
:100410000B433CD4002243088B4231D303098B4267
:100420001CD3030A8B4201D394463FE0C3098B429D
:1004300001D3CB01C01A524183098B4201D38B01F6
:10044000C01A524143098B4201D34B01C01A524199
:1004500003098B4201D30B01C01A5241C3088B42DE
:1004600001D3CB00C01A524183088B4201D38B00C9
:10047000C01A524143088B4201D34B00C01A52416B
:10048000411A00D201465241104670475DE0CA0F42
:1004900000D04942031000D34042534000229C4602
:1004A00003098B422DD3030A8B4212D3FC2289010C
:1004B00012BA030A8B420CD3890192118B4208D3E2
:1004C000890192118B4204D389013AD0921100E044
:1004D0008909C3098B4201D3CB01C01A5241830958
:1004E0008B4201D38B01C01A524143098B4201D385
:1004F0004B01C01A524103098B4201D30B01C01AB0
:100500005241C3088B4201D3CB00C01A5241830829
:100510008B4201D38B00C01A5241D9D243088B427F
:1005200001D34B00C01A5241411A00D20146634622
:1005300052415B10104601D34042002B00D5494286
:10054000704763465B1000D3404201B50020C046AF
:10055000C04602BD70477047704700000246C80F92
:10056000C00781434B0030B54B405B009B0D20D052
:100570001923DB06C91801231B05994220DB03243C
:10058000A40704251346AB400BD3002B04D1EB0684
:1005900013409B00E34204D4012464070023121992
:1005A0005941FF231B0599420BD2C9000143500F4B
:1005B00009E0CB0204D501430803024305D00548F6
:1005C00030BDFF21C905084330BD08460721090594
:1005D000884330BD0000C07FF0B5F94D0C091E09FD
:1005E0002C402E402F468BB0A7437DD0B543FCD086
:1005F000002E7AD0002CFCD00D465D40ED0F254337
:10060000AC1BFF25AD0464190894C502440DC90252
:100610002143500DDC0204430120C0070143044381
:10062000D2020191200C110C00958C460104234646
:100630008B430A9161460904E24D8A430991010AFC
:100640007D4449198039097805464D4301266D18C6
:10065000F605751B6943C90C640B891C4C4364186F
:10066000B5012C1B250C2E04B4434C434D43210CE7
:10067000691889090591009DE90701D00121C90781
:1006800004912C4601996708CD072F434C08059D1E
:10069000E10B4D432D0C29466646754302950D46E8
:1006A00045432E46029D7D1BB44100950D465D439A
:1006B00001942C0C2F040D465543AE462D0C3D43A2
:1006C000029503947546049C2D04641B049406D281
:1006D000029C039D641C002675410395029401ACA5
:1006E00070CC009F7D1B01E03EE162E1B441090452
:1006F0000095079101940599A4086143090C0C46E3
:100700004443650BE7040C4666467443A646640BF7
:100710003C43039502947446049DE4042C1B04940A
:1007200006D2029C039D641C002675410395029429
:1007300001AC70CC009F7D1BB44101940C465C431E
:100740000095650FE7000C465443A646640F3C43F2
:10075000039502947446049DE4002C1B049406D275
:10076000029C039D641C002675410395029401AC14
:1007700070CC009F7D1BB441AE09AF06049DC9003B
:10078000AD092F43049DA406AD060495079D34438F
:1007900069180791059DE10B4D432D0C29466646CE
:1007A000754302950D4645432E46029D7D1BB4417F
:1007B00000950D465D4301942C0C2F040D465543C6
:1007C000AE462D0C3D43029503947546049C2D04C2
:1007D000641B049406D2029C039D641C0026754190
:1007E0000395029401AC70CC009F7D1BB441019431
:1007F0008C050694079C890A611800950791019C55
:100800000599A4086143090C0D464543680BEF04A4
:100810000D46644665436C0B3C43049FED047D1B11
:10082000AC4602D20025641C6841009E019D371B26
:1008300085410846584301950C46460FC500544370
:10084000600F28436546E4002C1B02D20025401CA3
:100850006E41019D3F1AB5412846BD0980062843D7
:100860008446A009BF064E020699A40676180743DF
:10087000079D002068410A99079019430020099BB1
:1008800000906046FF1913434041E20F64003A4371
:10089000A4460446D71A8C41A04203D901200090F7
:1008A00020463A46C70F941840416246D20F224371
:1008B000644664000494009CBE466400D71AA446B3
:1008C000044602978C417746002F01D1A04204D9FB
:1008D0006046401C8446029A2046C40FA6469418DF
:1008E0004041049A0546D20F224364466400D31A5D
:1008F0008D417146002901D1A84202D928461A46E5
:10090000641C10430122002800D01643610200201D
:10091000079B891904465C410223002C02DB49181D
:1009200013466441089DCE0A2D145D194B056705D9
:10093000E10A2C050D1908993E43C9076940002BAF
:1009400008D0934006D30022761C5141002B01D1E0
:10095000760876001C4A002D43DB154241D0AA439D
:100960003FD030460BB0F0BD06180D464D41174C38
:100970007642AC411AD395181C465C41134A6D422D
:10098000A24113D3012252054C00D4420AD15C008B
:10099000D4420BD04B4002D592021143E2E749000A
:1009A0004908DFE75940C90FC90718E00020084986
:1009B000D8E7054801420DD10342F7D0F2E7000025
:1009C0000000FF07884300000000F07F0000E0FF08
:1009D0000000F87F114859400143C01241400020F7
:1009E000C0E70123089A9B069A4205DC03225207BE
:1009F0008918C90FC907B5E7052252078918074AA0
:100A00001143D2125140ADE770B515461C4602465F
:100A10000B4628462146FFF7DFFD70BDFFFFFF7F35
:100A2000F0B58B4C0F09254689B0BD437BD01D091D
:100A30002646AE43FAD00E465E402740F60F3E43B0
:100A4000254071D024012142FBD0FF24AD19A4041C
:100A50002D1B039501252D05DB02DB0AC9022B4363
:100A6000C90A29431E010901040F130F050121437F
:100A70001701880B820391432D098C46A90B1E4355
:100A80008A039543B30B9A0396433F09BA0B940329
:100A9000A74302962E467E430497B6464E19D719B1
:100AA0000C460196544305977E43371B7646BF1B81
:100AB0003601B646BE0B361900967646BC04371989
:100AC000009C01D3641C00946400002F01D0012617
:100AD0003443029E049F754366467E430496760027
:100AE00034196E0034190094029C019E1C1966434F
:100AF000751BAE46069465464519059C05956C43E5
:100B0000594375460891691A0191049E0146514363
:100B1000A41B0491611A009C0791E10605D06109AC
:100B20000122114302E072E06EE06109089D002796
:100B30002C0A2D066918049D7C412A0A2D06691885
:100B4000019D6241AC0DAD026D185441079A910DA3
:100B5000920255196141029A644658435443069BD8
:100B6000059A5A43121A131B9A0E9B015B187A417D
:100B7000010B0005C3185141220A200644195A41AD
:100B80009A4200D2491C01204002814203D315231E
:100B90000226F64302E014230326F6432020C51A5A
:100BA000A9401746AF40DA400A4320460399D8408F
:100BB0000914731819055118039A3843D207514084
:100BC000AC4009D00122944006D30022401C514180
:100BD000002C01D1400840001E4A934212D301224A
:100BE00003989206904207DB0520400709181A482F
:100BF0000143C012414004E0032040070818C10F20
:100C0000C907002009B0F0BD0020F107FAE7051878
:100C10000C464C4111486D42A04115D394181A4618
:100C20005A410E48644290410ED301204A004005CB
:100C3000824209D35A00824206D35940C90F084A5A
:100C4000C90700201143DDE700200649DAE700006C
:100C50000000FF07FE070000FFFFFF7F0000E0FF2E
:100C60000000F07F0000F87F0121C9050123411831
:100C700042001B06D3185B0E0AD0C1100722D20611
:100C8000891840075242D14201D552008918704755
:100C9000090208D50146002A03D0C10FC907002068
:100CA000704710467047420202D000200249704748
:100CB000072109050143F4E70000F87F1F22030C18
:100CC00002D10F2200041CD0030E01D10002083A09
:100CD000030F01D10001121F830F01D18000921E6A
:100CE000002801DB4000521ED20551180212511893
:100CF0001922904004D3491C002801D14908490019
:100D000008467047C10FC90700D040420122920730
:100D10001143D3E701218907D0E7FFB504460D460B
:100D200081B0243000902168880604D51022E06943
:100D30009143216000E00120A84201DD471B00E053
:100D400000270498A1697A191018081AA061207860
:100D5000C00602D42046FFF74BFA002608E00398AD
:100D60006268A168805D9047206A401C761C206202
:100D700004988642F3DB2078C0060AD52046FFF7A8
:100D800037FA06E06268A16830209047206A401C6C
:100D9000206238467F1E0028F4DC07E00098626875
:100DA000A168405D9047206A401C206228466D1E65
:100DB0000028F3DC2046FFF731FA2078000602D540
:100DC000022005B0F0BD0120FBE700007047FFB531
:100DD0000C461E468FB003CA089009914F007D0D46
:100DE00000D16D1E002108460020C0460321099A4B
:100DF00089050840002A03DA82008018400808406C
:100E0000800D01280A9002DD0020C0430A90089856
:100E100007430DD0EF48F0492818484307141898A5
:100E200000281DD07542291E1DDD0A9842421BE094
:100E30001898012802D00020302104E00020F2435D
:100E400005E02154401CB042FBDB30460022189BD9
:100E5000002121540F998B600A60486013B0F0BDE7
:100E6000BD1B6D1CDFE70A9A002900DA69420BA856
:100E700000F06EFA0BAB07CB03AB07C308990998D8
:100E800000F0CAFA6B4607C30146D4480918002D82
:100E900000910ADDD14903980A9A4942401803A9F2
:100EA0000390684600F0DDFC07E003990A9A0818F1
:100EB00003A90390684600F0AAFC6B4607C3000430
:100EC000000C03D00020C043410800E01046189AEF
:100ED000002A03D00022009215461EE0751E05D49C
:100EE00000F0B4F9303262556D1EF9D50122084385
:100EF000079602D000227F1C04E02078302801D120
:100F000000227F1E002A069789D01EE0112D07DAE5
:100F100000F09CF9303262556D1C02460A43F5D14F
:100F2000084303D00098002819D00EE00021681E65
:100F300005E0235C625C63542254401E491C8142DC
:100F4000F7DBA81B401E07950690079A189900200A
:100F5000A0540F98079B069A81600CC07EE711266B
:100F6000002018905BE7D21DF0B50D460446D1086D
:100F700093B0C90003C90C900D9103F0BDFB02466C
:100F80000D98C00F01D02D2007E02068810701D502
:100F90002B2002E04007C00F4001032A0F9001D030
:100FA000072A05DB03462946204600F08DF90EE1AD
:100FB0002078800601D5E76900E006272846652DE0
:100FC00004D0662814D0672D69D12DE00020112FA0
:100FD000009001DB112300E07B1C0CAA03A910A8E0
:100FE000FFF7F5FE1199002610987D1C0E9142E046
:100FF00001203B460CAAC0070B900120009003A9DA
:1010000010A8FFF7E4FE119D129810990026002801
:101010000E9501D1781C0D18781B02D446427D1C18
:10102000761EE81B00903AE0012F00DA012700202D
:10103000112F009001DD112300E03B460CAA03A90B
:1010400010A8FFF7C4FE11993D46109800260E9196
:10105000217809070BD40E99A94200DA0D4603A99D
:10106000012D04DD4A19203AD27F302A06D0B84239
:1010700001DA011D04DA012100910FE06D1EEFE796
:10108000002802DC86192D1A03E0411CA94200DD6C
:101090000D46801B401C00900120C0070B9020785B
:1010A000000705D40098A84202DB0020C04300904E
:1010B00069460020C8720B98012102AF0337C907A7
:1010C000884225D0022010902B2011900B980028E8
:1010D0000BDA40420B902D20119006E00B9800F0A7
:1010E0009CF830317F1E0B9039701099481E0029F2
:1010F0001090F3DC0B980028F0D111987F1E387007
:101100002088000501D5452000E065207F1E38704D
:1011100001A8C01BC01D0B900F98002800D0012013
:1011200041190098C01709180B980818A169081AE6
:10113000401EA0612078C00602D42046FFF758F870
:101140000F98002805D06268A1689047206A401C6B
:1011500020622078C00625D52046FFF749F821E017
:10116000002E07DB0E98B04204DD03A86268805DA4
:10117000A16802E06268A16830209047206A761C6E
:10118000401C20620098401E002800900AD100F008
:1011900059F8C06862680168405CA1689047206A9D
:1011A000401C206228466D1E0028D9DC07E06268DA
:1011B0003878A1687F1C9047206A401C20620B99F8
:1011C000481E00290B90F2DC2046FFF727F8032089
:1011D00044E6000001FCFFFF104D0000E1DFFFFFCF
:1011E00001694A1C02610878704700B58FB002910E
:1011F000002105910549019379440391114604901A
:101200006846FFF753F80FB000BD0000E5FFFFFF91
:101210000A681070521C0A60704701468008081A5C
:1012200002091018020A1018020C1018C0088200D7
:1012300012185200891A01E0401C0A390A29FBD20F
:101240007047000000487047340200200B4670B51C
:10125000024689078008084319469D08141AA941C7
:1012600025090807054308092C194841250A0106E4
:101270000D43010A2C194141200C0D0428430D0C8B
:1012800000194D41002140194D41C008690708432C
:10129000E908840F8D002543840024184D4124194A
:1012A0006D41121BAB4107E00925ED432C1152198A
:1012B00063410024401C61411C460A250026551B41
:1012C000B441F1D270BD0000F8B51F4604460123B9
:1012D0000068DB02032601461840072A05DB0028C8
:1012E00001D017A506E017A504E0002801D016A537
:1012F00000E016A5102081432160A069C01E002FC8
:10130000A06101D0401EA0612046FEF771FF002FB2
:1013100009D038466268A1689047206A401C206264
:10132000C01C206206E0206AFAE762682878A1689B
:101330006D1C9047761EF8D22046FEF76FFFF8BD71
:101340004E414E006E616E00494E4600696E660069
:10135000F7B516468AB02F4878446C4603467C336E
:10136000C06F5A689B680DC42A487844763003AC35
:101370000DC80DC43720C001081837211B30FFF7F6
:1013800046F805460C46803D1B3C02D564420120D0
:1013900000E00020002709900FE0E0070BD00C20B0
:1013A0001C497843794432464C394118684600F06C
:1013B0002EFA6B4607C364107F1C002CEDD1154F2D
:1013C0007F442C3F15E0E80711D02001C0190EC85A
:1013D0000691089307920068F04201D1981908908D
:1013E000324606A903A800F012FA03AB07C36D103A
:1013F000641C002DE7D1324669460998002803A8ED
:1014000002D000F02EFA01E000F001FA0A9B07C3B7
:101410000DB0F0BDF0360000034640000A4610B59E
:10142000400D0BD00121C9070F24A40200191C0391
:1014300064082143540D2143D20207E0002101201A
:10144000F2E7D40F490021435200401E0029F8DA88
:10145000DB0FDB07184310BDFFB50D46144685B002
:101460004868516803F030F900910190A868A168BC
:1014700003F02AF902910390A868616803F024F947
:10148000029A12188242029201D2012000E000204A
:10149000019A0B18D2180028019202D08A4202D970
:1014A00003E08A4201D2012000E0002000990818E0
:1014B00000906868A16803F007F9029A1218824246
:1014C000029201D2012000E00020019A0B18D218EC
:1014D0000028019202D08A4202D903E08A4201D256
:1014E000012000E000200099081800902868216879
:1014F00040004900400849084018EE49471814E0E8
:1015000001994000C90F08430090019802994000DA
:10151000C90F08430190029803994000C90F08437E
:101520000290039840007F1E039000980028E7DA9D
:101530000898002801D0E04E00E00026B74228DAE3
:10154000F71BF806C00E15D0029B2021091A039A3A
:101550008B401A430392029A019BC2408B401A436C
:101560000292019A009BC2408B4000991A4301925B
:10157000C14000917A110BD06B460320811A01D52E
:10158000002101E0890059588700401ED951F5D546
:10159000374603980299002800D00120014308989B
:1015A0000291002808460CD0002800D001200199A3
:1015B000019A490508430121D20AC902D2020192C7
:1015C00000E001210E9B0122D207012B02D0002B4B
:1015D00003D013E0002807D116E0904204D89042CF
:1015E0000CD1019B0B4209D0019B5918019105D1E7
:1015F0000099491C009101D17F1C0092002803D062
:10160000102108460020C04628682168019B009AE6
:101610004840C10F0598C90739430EC009B0F0BD55
:10162000FFB587B0099A089808995368926840688E
:10163000896896460022039317469446089A1268D2
:101640005300099A5B081268520052089A1A9B4B81
:10165000D4180A9A002A01D0352200E040220692CE
:101660000022012315460492DB07059324E0002D98
:1016700005D175460346039E4D1BB34109D37546FC
:101680006646039B491B049D9841059B7519AC4612
:101690005F4163463B4308D0059B049EDD07760807
:1016A0002E435B080496059301E0521E641EC50F8D
:1016B000ED0749184041521C069B9A42D7DB002D8A
:1016C00004D17546039A6B1A824101D203200CE0C3
:1016D000039A0B466B404240134303D0014303D0AF
:1016E000012002E0022000E000206146019100217B
:1016F000009702910A99002905D0614640020143F2
:101700006D4B019102E08007002302909C423ADA7F
:101710001A1BD006C00E15D0029D2021019C091A6B
:10172000C5408C402543029C8C4000D001242543B9
:10173000019C02953D46C4408D4039462C43C14032
:101740000194009154111DD06D46022100220229FE
:101750000CD10320001B07E0002804DB8600AE59F3
:10176000002E00D00122401C0328F5DB081B02D507
:1017700088002A5004E08000285810438A00A850AE
:10178000491EE3D51C460A98002802980CD0002870
:1017900000D001200199019A490508430121D20A8C
:1017A000C902D202019200E00121109B0122D2075E
:1017B000012B02D0002B03D013E0002807D116E044
:1017C000904204D890420CD1019B0B4209D0019B5E
:1017D0005918019105D10099491C009101D1641C4F
:1017E0000092002803D0102108460020C046089827
:1017F0000999019A0068096848400099C30F079841
:10180000DB0723430360826041600BB0F0BD1FB56E
:10181000002300920A46014601A8FFF71DFE01AB16
:1018200007CB04B010BD1FB5012300920A46014644
:1018300001A8FFF711FE01AB0F2407CBA402C30FD1
:101840004000DB074008001B002900DB00204900A6
:1018500000054908CC0A204349051843D20A114320
:10186000DFE71FB5002300920A46014601A8FFF7F3
:10187000D7FE01AB07CBD4E71FB5012300920A4680
:10188000014601A8FFF7CCFE01AB0F2407CBA40251
:10189000C30F4000DB074008001B002900DB0020CD
:1018A000490000054908CC0A204349051843D20ADB
:1018B0001143B6E702C0FFFF013C0000FF3F0000FC
:1018C00000487047140200207546FFF7F9FFAE4646
:1018D000050069465346C008C000854618B020B5CB
:1018E000FEF75EFC60BC00274908B6460026C0C56E
:1018F000C0C5C0C5C0C5C0C5C0C5C0C5C0C5403DC8
:1019000049008D4670470446C046C0462046FEF753
:1019100037FC0000024670B50A4392072AD11E4DDB
:10192000EE0104C808C9541B9443344017D0D0B208
:10193000D9B2401A2106014310D190B299B2401A8F
:10194000210401430AD110021902000A090A401AAF
:101950002102014302D1100E190E401A70BD9A42A5
:10196000DFD010BA19BA884201D9012070BD002019
:10197000C04370BD02780B78401C491C002A09D076
:101980009A4207D102780B78401C491C002A01D0EA
:101990009A42EFD0D01A70BD01010101014918200F
:1019A000ABBEFEE7260002007047000010B50248FB
:1019B00000F044FB10BD00007400002010B5846AE4
:1019C000A16D502211420DD1A06D012149020843A1
:1019D000A065206802F01AF900281AD0A07E00281D
:1019E00007D016E0A16DC90623D5204600F025FBDF
:1019F00010BD2068016809070BD502F003F9012228
:101A000000280AD0A06D20210843A065E06D104396
:101A1000E065204600F004FB10BD206841680C23FF
:101A200099434160A06DFF21013188431043A065B7
:101A3000EFE7216D496B884710BD10B5806A816D55
:101A4000402211438165C16D04221143C16500F03C
:101A5000F4FA10BD10B5806A00F0EEFA10BD000077
:101A6000F8B50446206881688907CD0F02F0C2F8F6
:101A7000002832D0002D30D1206881680522114025
:101A800010260127012907D0A06D3043A065E06D25
:101A90003843E0650120F8BD8168114A1140891C76
:101AA000816021680320086000F088FF054610E08F
:101AB00000F084FF401B02280BD920688068C00713
:101AC00007D0A06D3043A065E06D3843E06501208C
:101AD000F8BD20688068C007EAD10020F8BD00008A
:101AE000E8FFFF7FF8B5044600200090206802F070
:101AF00081F8002852D120688168294A10271140B6
:101B0000002908D0A06D3843A065E06D012108438D
:101B1000E0650120F8BD8168214E2F3E3140491C0F
:101B200081602048006807218905084000020DD522
:101B30001E481D490068FEF760FC401C009002E052
:101B40000098401E009000980028F9D1607E01287E
:101B500024D000F033FF05461BE002F04BF80028CC
:101B600004D1206881683140491C816000F026FF63
:101B7000401B02280DD920680068C043C00708D068
:101B8000A06D3843A065E06D01210843E0650120A8
:101B9000F8BD20680168C943C907DED10020F8BD3F
:101BA0001700008008270140400D030010000020AE
:101BB00010B5024800F046FD10BD0000D80000201E
:101BC00010B50446206C0949800880004018606404
:101BD000207814210838FEF710FC04498031A164F4
:101BE000C106C90E01208840E06410BD0008024013
:101BF00001798906890E491E064B8A00D2180265B2
:101C0000044A403242658A07920F01219140816562
:101C10007047000000090240F0B5856CC46C6C6030
:101C2000046D002C02D0456D846D6C600B4F7C6898
:101C3000056C1C2635400126AE4034437C600468A8
:101C400063608368102B04D0036899600068C260E9
:101C5000F0BD03689A600068C160F0BD00000240FA
:101C600072B6FEE7F0B585B004460020029000256C
:101C700026464036307D012813D00120307520469D
:101C8000FFF7EEFE0390206801F0B8FF1027002850
:101C900009D0A06D3843A06500203075039805B0C9
:101CA000F0BD0220FBE7A06DFF2101318843022136
:101CB0000843A0652068C168434A11400191C1688A
:101CC000D2431140C16000212068826817239A43E3
:101CD000DB071A4382603D4A20680EE0029B5B1CD2
:101CE0000293029B934208D3A06D0221884338439C
:101CF000A065002030750120D1E78368DB0F002B41
:101D0000ECD18030406B4006400E4519491C082933
:101D1000DAD32846FEF771FB0246206881682C4B17
:101D20001940491C816021680869800F80070028DC
:101D300017D1284800680F25AD0428400725AD04B9
:101D4000A8420ED3850CED1E0120A84000900098FB
:101D50004008009002E00098401E00900098002883
:101D6000F9D18031486BC009C00110434863206835
:101D700081681940891C816000F020FE054612E050
:101D800000F01CFE401B02280DD9206801F036FF30
:101D9000002808D0A06D3843A065E06D01210843FC
:101DA000E06501207BE7206801F028FF0028E7D1EB
:101DB0002068C168019A1143C160A06D800880004D
:101DC000401CA06568E700000380000000F20200EC
:101DD000E8FFFF7F08270140704770477047704752
:101DE000FEB504460D460020019000900127FF0734
:101DF00026464036307D012810D0012030752068FD
:101E000001F000FF00280BD0A06D20210843A06541
:101E100001200190002030750198FEBD0220FEBD1A
:101E2000686802287ED02169B94202D0754A914281
:101E300007D120682968826A4903490B0A438262F4
:101E40006EE0C106C90E0F20226E884082432868CA
:101E5000430303D0C30704D000204BE04000C00E72
:101E600048E0830701D5012044E0430701D5022063
:101E700040E0030701D503203CE0C30601D5042060
:101E800038E0830601D5052034E0430601D506205D
:101E900030E0030601D507202CE0C30501D508205A
:101EA00028E0830501D5092024E0430501D50A2057
:101EB00020E0030501D50B201CE0C30401D50C2054
:101EC00018E0830401D50D2014E0430401D50E2051
:101ED00010E0030401D50F200CE0C30301D510204E
:101EE00008E0830301D5112004E0400301D512204E
:101EF00000E000208840024322666968E2698808A1
:101F0000401C90420CD820682F68826AC906C90E0E
:101F10000F238B409A43BB001B0F8B401A438262F6
:101F2000206800E040E0AA682968436909028B4301
:101F30001140490149090B4343612A68002A00DB2B
:101F400068E73148016807239B0519402F4B9A42E7
:101F500016D10B0214D4D202114301F05FFE2D48BA
:101F60002B490068FEF749FA401C0C2148430090B9
:101F700002E00098401E009000980028F9D149E73F
:101F8000254B9A4206D1CB0104D49202114301F0B1
:101F900045FE3FE7214B9A42D2D14A02D0D45A02A1
:101FA000114301F03BFE35E72069B84202D01549E4
:101FB000884206D120682968826A4903490B8A430E
:101FC00082622A68002ABBDA0F48016807239B0552
:101FD00019400E4B9A4204D1D202914301F01EFEE9
:101FE00018E70D4B9A4204D19202914301F016FE7C
:101FF00010E70A4B9A42A3D15202914301F00EFE20
:1020000008E700000400008008270140001000B02D
:10201000400D030010000020004000B8002000B474
:1020200000680349884202D10249012008707047C4
:10203000002401400000002070477047F8B50446B6
:102040000027206805684668A8070FD5B0070DD59A
:10205000A06DC00604D4A06D0121C9020843A0658B
:102060002046FFF7BAFE216802200860680701D504
:10207000700703D4280727D5300725D5A06DC006E3
:1020800004D4A06D012149020843A065206801F035
:10209000BDFD002812D0A07E00280FD12068016865
:1020A00009070BD501F0AEFD012100284CD0A06D31
:1020B00020221043A065E06D0843E0652046FFF74D
:1020C000AFFF21680C20086028060CD530060AD521
:1020D000A06D012109040843A065204600F076F9AF
:1020E000216880200860E8050DD5F0050BD5A06DAE
:1020F000012149040843A0652046FFF76FFEFF2039
:10210000216801300860A8050DD5B0050BD5A06D7C
:10211000012189040843A0652046FFF760FE0120E5
:10212000216840020860E8062BD5F00629D5206B0F
:10213000002815D02068C0688007800F002800D0D4
:102140000127012F0ED019E0206842680C239A4322
:102150004260A06DFF22013290430843A065ADE7C5
:102160000127EEE7A06D012189020843A065E06D1B
:1021700002210843E0652046FFF75FFF2168102039
:102180000860A80408D5B00406D52046FFF724FE51
:102190000120216840030860F8BD0000FEB5044638
:1021A000002600200290019000270097002C05D007
:1021B00025462035A06D002802D007E00120FEBD95
:1021C000204600F005F9E76554200755206881682E
:1021D000C900C90F002915D18168754A1140012233
:1021E000120711438160744872490068FEF705F9CF
:1021F000401C4000009002E00098401E00900098B3
:102200000028F9D120688168C900C90F002908D1C8
:10221000A16D10221143A165E16D01221143E16519
:10222000012601F0EFFCA16D10221140014306D000
:10223000A06D10210843A06501263046FEBDA06DAB
:10224000FF210131884302210843A065206801F085
:10225000D1FC00286FD1217EA06889030843617EEC
:10226000A27EC903530319430843216B002902D0FE
:102270000121090300E000210843E16808432169C6
:10228000002902DA4900490801E001214905084313
:10229000297B49000843029908432978012909D17B
:1022A000002A22D0A16D20221143A165E16D0122F7
:1022B0001143E165616A002906D0FF23C13319404B
:1022C000A26A0143104608432168CA683B4B1A4082
:1022D0000243CA606168019A890F8907E06C0A436A
:1022E00010432A7F012A04D00CE00121090408438D
:1022F000E0E7636C226C491C1A43A36C0B43114644
:102300001943084321680A692D4B1A4002430A61A8
:1023100003216068890788420DD0590788420AD096
:102320004900884207D0274A91680F239B049943AC
:102330001840014391600021626B206801F075FC38
:102340002149A26B206801F070FC0F212069C9436C
:1023500000281BD001225205904209D12068826AD0
:10236000227F521E5207D20E9140226E114381628B
:10237000206840694007400F616B88420BD1E765D8
:10238000A06D80088000401CA06556E72068826A26
:102390000A438262ECE7A06D0221884310210843C2
:1023A000A065E06D01210843E065012645E70000D6
:1023B000E8FFFF7F400D0300100000200102DEFF58
:1023C00002FCFF1F0027014004FFFF0770470000C9
:1023D00070B58CB00546142107A8FEF70CF818213B
:1023E00001A8FEF708F828492868884249D1012049
:1023F000800301900004059001A800F075FB0028FF
:1024000001D0FFF72DFC21480268012109050A438C
:1024100002600068084000901C484038416B01226F
:1024200011434163406B10400090FF200790032050
:10243000089000260996052007A9000700F016FA63
:10244000144C1348206005206060A660E660802080
:102450002061800060618000A0612020E061266230
:10246000204600F051F9002801D0FFF7F9FB2C6558
:10247000A562002211460C2000F00CFB0C2000F09D
:10248000FDFA0CB070BD0000002401404010024075
:1024900008000240D8000020F7B50446206801F08B
:1024A000B1FB002801D00220FEBD25464035287D25
:1024B000012807D001272F752068C1681F4EC90762
:1024C00002D00EE00220FEBD01F094FB002804D0F3
:1024D000206881683140891C81602068C168394367
:1024E000C1602046FFF7FEFA0028ECD1A06D144928
:1024F0000840FF2101310843A0650020E065226DFE
:102500001049D162226D10491163226D0F49516348
:1025100022681C211160287520684168102211432F
:1025200041602168206D4031029B019A00F040F922
:1025300021688A683240121D8A60FEBDE8FFFF7F75
:10254000FEF1FFFFBD190008551A00083B1A0008EC
:10255000F0B500280AD0014620314A79022A07D076
:102560000422C263002008710120F0BD0120F0BDEB
:10257000026813680E24A3431360426C1468FF239F
:1025800001339C431460026814686408640014609A
:102590000C4E7268056C1C24254001242746AF4070
:1025A0003A437260856CC26C6A60026D002A05D085
:1025B00015689D431560826D406D42604C7100202E
:1025C0000871F0BD00000240F8B50024014620313A
:1025D0004A79022A03D00421C16301242DE0026854
:1025E00013680E25AB431360026813685B085B0039
:1025F0001360426C1368FF250135AB431360104E26
:102600007268056C1C231D4001231F46AF403A43EE
:102610007260856CC26C6A60026D002A06D0166812
:102620001D02AE431660456D826D6A604B710022DB
:102630000A71816B002900D088472046F8BD000050
:1026400000000240F0B42F4E336801680C68056C3E
:102650001C22154004221746AF401F4213D06707C3
:1026600011D50B689B0602D40B6893430B6073680B
:10267000016C1C2421408A4013437360016B0029C4
:102680003ED0F0BC08470227AF4002461F40203230
:10269000002F19D0A70717D50B689B0605D40B6828
:1026A0000A24A3430B60012151717368046C1C213F
:1026B0000C400221A1400B43736000211171C16ADB
:1026C00000291DD0F0BC08470827AF401F4217D093
:1026D000230715D50B680E24A3430B607368046CA5
:1026E0001C210C4001210D46A5402B437360C163A2
:1026F000517100211171416B002901D0F0BC0847D4
:10270000F0BC70470000024070B50446002C3FD07A
:102710002548256814212818FDF76FFE80002064E5
:10272000022026462036707128682049084028601B
:10273000A168E06862690143206910430143A06910
:102740000143E0690143206A0143206802681143A4
:1027500001602046FFF734FA0121A06889030025B3
:10276000884200D165602079616C8006800E086027
:10277000A16CE06C48606068401E03280AD82046BF
:10278000FFF736FA206D0560616DA06D486004E0CA
:10279000012070BD25656565A565E5630120707143
:1027A0003571002070BD0000F8FFFDBF0F80FFFFF6
:1027B000F8B504468C4600252046203001790129D1
:1027C0000BD00126067147790021012F07D0802206
:1027D000E263017101252846F8BD0220F8BD0227F9
:1027E0004771E1632068016849084900016061465A
:1027F0002046FFF711FA206B002805D020680168F9
:102800000E221143016009E020680168042291430F
:102810000160206801680A2211430160606C016850
:10282000084AC90302D5016811430160206D0028E0
:1028300002D00168114301602068016831430160E2
:10284000C9E700000001000070B5044600F0B6F8CA
:102850000546601C02D004480078241800F0AEF849
:10286000401BA042FAD370BD04000020F0B5002246
:102870008FE0012797403B40002B7DD00C79A407C7
:10288000A40F012C01D0022C10D18568540003261E
:10289000A640B543CE68A6402E4386604468BC433C
:1028A0000D79ED06ED0F9540254345600C79E44325
:1028B000A40708D0C56854000326A640B5438E6817
:1028C000A6402E43C6600C79A407A40F022C0CD19D
:1028D000D408A40027183D6A5407E40E0F26A6402A
:1028E000B5430E69A6402E433E6205685400032698
:1028F000A640B5430E79B607B60FA6402E43066034
:102900004C68A403A40F43D09508254CAD002F19A3
:102910003D6E9407E40E0F26A640B5430526360704
:10292000B04201D100260FE01E4EB04201D1012677
:102930000AE01D4EB04201D1022605E01B4EB04216
:1029400001D1032600E00526A6402E43144D3E6625
:102950002C689C434E68F60200D51C432C606C68C2
:102960009C434E68B60200D51C436C600C4D80350C
:102970006C689C434E6800E00AE0B60300D51C4337
:102980006C602C689C434E68F60300D51C432C6099
:10299000521C0B681C46D44000D06AE7F0BD000012
:1029A000001802400004005000080050000C0050C5
:1029B000002A01D0816170478162704701488068B8
:1029C00070470000040000200248816802788918DE
:1029D000816070470400002010B50024074801689A
:1029E000821511430160032000F00AF8002801D08D
:1029F000012401E000F02CF8204610BD0020024028
:102A000070B505460024104E3178002919D07D207C
:102A1000C000FDF7F2FC01460C480068FDF7EDFC34
:102A200000F04AFC002801D001240BE0042D06D25E
:102A300000222946501E00F02DF8756002E00124A6
:102A400000E00124204670BD04000020100000209A
:102A500008B509480168012211430160006810406F
:102A6000009005484038C26B01040A43C263C06B42
:102A70000840009008BD000040100240002805DB1F
:102A8000C106C90E01208840014908607047000056
:102A900000E100E010B501F045FE10BD10B50F4C8F
:102AA000216803225202914301432160C11FFF3973
:102AB000FA390ED10A480621006848430949FDF752
:102AC0009CFC401C02E0002805D0401E61694905BD
:102AD000F9D4002010BD032010BD0000007000409C
:102AE0001000002040420F00FEB5044600250027DC
:102AF0002068554E800367D5002001905248403829
:102B0000C06BC0000AD450484038C16B0204114366
:102B1000C163C06B10400090012001904B480168D8
:102B2000821511430160FFF749FF029007E0FFF7AC
:102B300045FF0299401A022801D9032503E04348C2
:102B40000068C005F3D5002D04D02F460198012858
:102B500034D039E0F06903210902084000280FD081
:102B6000616981420CD0F069032109028843F2694E
:102B7000012109040A43F261F2698A43F261F061BA
:102B8000C0070FD0FFF71AFF029008E0FFF716FF0B
:102B90000299411A2E48814201D9032502E0F069C9
:102BA0008007F3D5002D01D02F46CFE7F069032130
:102BB0000902884361690843F061C7E72248403849
:102BC000C26B01048A43C2632078C00705D07069D4
:102BD000616880088000084370612078800606D50F
:102BE0007069032109038843A16808437061208844
:102BF000400411D570692169800080080843706124
:102C0000012120698907884206D10F484038C168F0
:102C1000012212041143C1602088000511D570699A
:102C2000032189038843E168084370610121E0685A
:102C30008903884205D104484038C26889000A43A4
:102C4000C2603846FEBD00004010024000700040E7
:102C500088130000F8B504460D46002C0FD05448E8
:102C600000684007400FA84218D2514F3868C0088A
:102C7000C00028433860FFF7A1FE064609E00120A6
:102C8000F8BDFFF79BFE811B4A48814201D9032012
:102C9000F8BD38684007400FA842F2D12068464E80
:102CA00081070DD5400704D5B06807210903084303
:102CB000B060B0680F2109028843A1680843B06082
:102CC0002078C0073BD0606801280CD002280FD0C4
:102CD000002812D038494031032813D0C969890728
:102CE00015D40120F8BD3168890310D40120F8BD46
:102CF000316889010BD40120F8BD3168490506D43B
:102D00000120F8BD096A890701D40120F8BDB16826
:102D1000C908C9000143B160FFF750FE074607E04C
:102D2000FFF74CFEC11B2348814201D90320F8BDA7
:102D3000B068382108406168C9008842F0D11C4859
:102D400001684907490FA94216D90168C908C90095
:102D500029430160FFF732FE074607E0FFF72EFE2A
:102D6000C11B1448814201D90320F8BD10480068F6
:102D70004007400FA842F1D12078400706D5B1683E
:102D8000072000038143E0680143B16000F036F89A
:102D9000B1683C2289091140084A515CC906C90E34
:102DA000C8400749086007480068FFF729FEF8BDDA
:102DB0000020024088130000001002406C49000807
:102DC0001000002008000020014800687047000043
:102DD0001000002000B5FFF7F7FF064989680722B9
:102DE00012031140090B044A8900515CC906C90E3F
:102DF000C84000BD00100240AC49000810B5244C8A
:102E0000A068244A8006400F16D0A0688006410FB3
:102E1000501001290FD0A1688906490F022914D04A
:102E2000A0688006400F04282CD0A0688006400FC0
:102E300003282AD0002010BD206801218004400F03
:102E400081401046FDF7D9FA10BDE1688B079B0F52
:102E5000E1684906490F491C032B0CD01046FDF7C9
:102E6000CCFAE1684904490E4843E168490F491C1E
:102E7000FDF7C3FA10BDFDF7C0FAE1684904490E39
:102E80004843F2E70120C00310BD7D20000210BDC1
:102E9000001002400024F400FEB50446002C0DD0C2
:102EA00020783827C007F94E002851D0B068384044
:102EB000F1688907890F102802D003E00120FEBDC8
:102EC00003290AD0082808D0012160680904884233
:102ED0000BD13068084330601AE03068800337D582
:102EE0006068002834D10120FEBD052301221B04A7
:102EF0009204984206D1306810433060306808432D
:102F0000306005E03068884330603068904330605E
:102F1000606800280ED0FFF751FD054606E0FFF778
:102F20004DFD401B642801D90320FEBD306880039D
:102F3000F5D50DE0FFF742FD054606E0FFF73EFD43
:102F4000401B642801D90320FEBD30688003F5D4FE
:102F5000207880076DD5B0683840F1688A07920FF5
:102F60000721C902102801D1022A12D0002810D04E
:102F7000E06800284AD030688843216908433060FF
:102F80003168FF20013001433160FFF717FD05462E
:102F900030E03268520502D5E268002A0AD0726831
:102FA0007F231B029A4363691B021A437260002845
:102FB00002D010E00120FEBD30688843216908433B
:102FC0003060306801218004400F8140B048FDF737
:102FD00014FAB0490860B0480068FFF711FD0028F6
:102FE00027D00120FEBDFFF7E9FC401B022801D9D4
:102FF0000320FEBD30684005F5D571687F200002D2
:103000008143606900020143716012E03168FF2072
:10301000013081433160FFF7D1FC054606E0FFF740
:10302000CDFC401B022801D90320FEBD30684005BD
:10303000F5D42078994D000734D5B0688006400F4C
:1030400003280AD0A06900281AD0286A0121084361
:103050002862FFF7B3FC07460EE0286A800721D5F7
:10306000A06900281ED10120FEBDFFF7A7FCC01BF0
:10307000022801D90320FEBD286A8007F5D511E09A
:10308000286A400840002862FFF798FC074606E0DF
:10309000FFF794FCC01B022801D90320FEBD286A5B
:1030A0008007F5D42078400775D500200190B068DE
:1030B0008006400F042818D0F06BC00009D4F16BD3
:1030C000012000070143F163F16B014000910120F1
:1030D000019073480168C9051AD40168821511432B
:1030E0000160FFF76BFC07460EE0E869800752D5E8
:1030F000A06800284FD10120FEBDFFF75FFCC01B78
:10310000022801D90320FEBD65480068C005F4D53A
:10311000A068012810D00421052812D0E8694008D1
:103120004000E861E8698843E861A06800281CD095
:10313000FFF744FC074614E0E86901210843E86111
:10314000F3E7E8690843E861E86901210843E861B9
:10315000EBE7FFF733FCC11B5248814201D9032042
:10316000FEBDE8698007F4D50EE0FFF727FC0746AF
:1031700007E0FFF723FCC11B4A48814201D9032025
:10318000FEBDE8698007F4D40198012803D1F16BF2
:1031900000078143F163E069002845D0B1688906E2
:1031A000490F022950D001273F06022806D0306877
:1031B000B8433060FFF702FC04463DE03068B84396
:1031C0003060FFF7FBFB054606E0FFF7F7FB401B0F
:1031D000022801D90320FEBD30688001F5D4616A60
:1031E000206AA26A0843E16A120211430843216B74
:1031F0000843F1682C4A11400843F06030683843B6
:103200003060F068012109070843F060FFF7D6FB42
:10321000044606E0FFF7D2FB001B022801D9032079
:10322000FEBD30688001F5D544E0FFF7C7FB001B09
:10323000022801D90320FEBD30688001F5D4F06872
:103240001A490840F06035E0012831D0F068226A60
:103250008107890F914216D17021626A0140914223
:1032600011D17F21A26A09020140120291420AD1C2
:103270001F214904E26A0140914204D1400F216BB1
:103280004007884216D00120FEBD00000010024019
:103290000024F4001000002008000020401002402C
:1032A00000700040881300008C80C11FFCFFFEEFFF
:1032B0000120E9E70020E7E710B50949401E8842F0
:1032C00001D9012010BD074C60610321081F01F0E6
:1032D00029FA0020A06107202061002010BD000015
:1032E000FFFFFF0000E000E07047704770470000FC
:1032F000F0B502462032137F012B23D00123137730
:103300000223537704686368A5680F4EB44204D162
:103310000F273F05BB434F683B437027BB430F68F4
:103320001F4367600068B04202D0084B984204D146
:1033300080239D43896829438160012050770020C4
:103340001077F0BD0220F0BD002C014000040040C9
:1033500070B50446002C05D025462035687F00282E
:1033600002D006E0012070BD00202877204600F042
:1033700017F802206877211D206800F009FE01225D
:1033800040342272AA77EA7722706270A270E270EB
:1033900022716271A271E2716A77002070BD000033
:1033A00008B50068094988420FD10948C26B02215B
:1033B0000A43C263C06B08400090002211461020EF
:1033C000FFF768FB1020FFF759FB08BD0004004021
:1033D00000100240014620314A7F012A01D001201D
:1033E000704702224A7700680B490122884202D0C6
:1033F0000A4988420BD18168094B1940062909D036
:10340000DB1F994206D001681143016002E00168A8
:103410001143016000207047002C0140000400406F
:1034200007000100F8B50446002625462035287F10
:10343000012817D001272F7702206877206882683B
:10344000324B1A40FF231B029A43826008685028BF
:1034500038D00EDC202853D006DC002850D01028AD
:103460001ED14DE00220F8BD302849D0402817D1A8
:103470003CE0602830D0702818D001221203801A56
:103480000FD090420CD1CB684A688968206800F060
:10349000C3FD20688168012292031143816000E02E
:1034A00001266F77002028773046F8BDCB684A6840
:1034B0008968206800F0B0FD206881687722114398
:1034C0008160EEE7CA684968206800F0BBFD5021C2
:1034D000206800F0ADFDE4E7CA684968206800F0A4
:1034E000C2FD6021206800F0A3FDDAE7CA684968E0
:1034F000206800F0A7FD4021206800F099FDD0E78A
:1035000022680146104600F093FDCAE788FFCEFF0F
:1035100070470000F8B504462068C66805690027B2
:10352000A907002914DAB10712D5F91E016101209B
:10353000207720688069800703D02046FFF7E8FFE6
:1035400005E0204600F08EF8204600F08CF8277742
:10355000680717D5700715D504202168C043086196
:1035600002202077206880698005800F03D02046E4
:10357000FFF7CEFF05E0204600F074F8204600F08B
:1035800072F82777280716D5300714D50820216848
:10359000C0430861042020772068C069800703D0F9
:1035A0002046FFF7B5FF05E0204600F05BF8204617
:1035B00000F059F82777E80617D5F00615D5102042
:1035C0002168C0430861082020772068C069800511
:1035D000800F03D02046FFF79BFF05E0204600F058
:1035E00041F8204600F03FF82777E80708D0F007B9
:1035F00006D001202168C0430861204600F034F85D
:10360000280601D4A80407D5300605D5216813483B
:1036100008612046FFF769FEE80507D5300605D5A5
:1036200021680F4808612046FFF75EFE680608D54E
:10363000700606D540202168C0430861204600F08E
:1036400014F8A80608D5B00606D520202168C04386
:1036500008612046FFF74AFEF8BD00007FDFFFFF4C
:10366000FFFEFFFF704770477047704710B5014677
:1036700080310A79012A15D001220A7124228A6038
:103680000268136814686408640014600122520719
:1036900093430022426600680360202088600A711C
:1036A000002010BD022010BD7047704770B5054660
:1036B0002C468034207901281AD001202071242042
:1036C000A0602868066802685208520002602868F4
:1036D000826807235B069A430A438260284600F00B
:1036E000D5FC286806602020A0600020207170BDF5
:1036F000022070BD70B505462C4680342079012823
:1037000019D0012020712420A06028680668026872
:1037100052085200026028688268D200D2080A4328
:103720008260284600F0B2FC286806602020A06075
:103730000020207170BD022070BD70477047704737
:10374000F8B504462368D86919689A68B24D0646E8
:103750002E40002E0ED185060CD5012720253F07CF
:103760000D4017403D4305D0616F002901D0204630
:103770008847F8BD25468035002E74D0A74EA84F47
:1037800016400F4037437DD0C70706D0CF0504D57C
:1037900001271F622B693B432B61830708D5D307A1
:1037A00006D0276802233B622B6904273B432B6129
:1037B000430708D5D30706D0276804233B622B694B
:1037C00002273B432B61030709D520230B403343DA
:1037D00005D02668082333622E691E432E61030537
:1037E00009D54B0107D501232668DB0233622B691B
:1037F000202633432B612B69002BBAD080060AD5D3
:1038000020200140C0050240114304D0616F00290F
:1038100001D020468847286921688968490602D472
:103820002821084228D0204600F020FD2068816829
:1038300049061DD5EFF31081012282F310888368B9
:1038400040229343836081F31088286800280BD0BE
:10385000744981632868FEF7B7FE002889D028687C
:10386000816B8847F8BD0DE02046FFF768FFF9E758
:103870002046FFF764FFF5E72046FFF760FF0020D2
:103880002861EFE7E66E012E7ED1C6067CD5CE0616
:103890007AD510221A622068816826464906403689
:1038A00000294CDA2B681968496889B20029D9D0F7
:1038B000B78B8F42D6D9F18319680968890634D449
:1038C000EFF31081012383F3108803681701BB43D2
:1038D000036081F31088EFF31081012080F31088DA
:1038E000206883685B085B00836081F31088EFF3D6
:1038F0001081012080F31088206883684027BB4333
:10390000836081F310882020E8600020E066EFF3F8
:103910001081012080F310882068036893430360BE
:1039200081F310882868FEF713FE02202067B08B11
:10393000F18B401A81B22046FFF7B6FE92E7B18BB9
:10394000F38BC91A89B2F38B002B8BD0002989D055
:10395000EFF31083012686F310880668FF272137CE
:10396000BE43066083F31088EFF31083012080F3D9
:10397000108820688668294FFF433E40866083F3A5
:1039800010882020E86000E013E00020E066606717
:10399000EFF31083012080F31088206805689543B9
:1039A000056083F31088022020672046FFF77CFE25
:1039B00058E7C50208D5550206D501200005186252
:1039C0002046FFF7BBFE4DE703060CD501258023FB
:1039D000ED050B402A40134305D0A16F0029ADD05F
:1039E000204688473EE7420605D54A0603D52046CD
:1039F00000F06EFC36E7020205D54A0003D52046EA
:103A0000FFF79BFE2EE7C00198D5002996DA2046E5
:103A1000FFF74BFE26E700000F0800000100001032
:103A2000200100045942000870B50446002C05D05E
:103A300025468035A868002802D006E0012070BD28
:103A400000202871204600F029F82420A860206872
:103A50000168490849000160A06A002802D0204698
:103A600000F036FB204600F049FC012813D0206806
:103A700041680922D20291434160206881682A226C
:103A80009143816020680168012211430160204652
:103A900000F084FB70BD012070BD000030B58DB01A
:103AA0000446142108A8FCF7A6FC182102A8FCF77C
:103AB000A2FC1C492068884231D1012402940025CF
:103AC000039502A8FFF710F8002801D0FEF7C8F808
:103AD00015480268012189030A4302600068084012
:103AE000019011484038416B21434163406BC0074E
:103AF000C00F0190032040020890022009900A950F
:103B00000B950C94052008A90007FEF7AFFE0022D4
:103B100011461B20FEF7BEFF1B20FEF7AFFF0DB0C6
:103B200030BD0000003801404010024070B503462F
:103B300080339C68202C01D0022070BD00290AD05F
:103B4000002A08D0012584682D03AC4209D10669FA
:103B5000002E02D005E0012070BDCE0701D001206B
:103B600070BD0165014640318A82CA8200218167A9
:103B70001961212199600122416E5207914217D1AA
:103B8000AC4202D1016900290FD015498167EFF3DA
:103B90001081012282F31088006882680123DB050E
:103BA0001A43826081F3108815E00E498167EEE7C1
:103BB000AC4202D1016900290FD00B498167EFF3B4
:103BC0001081012282F310880068026880231A4362
:103BD000026081F31088002070BD04498167EEE720
:103BE000B5450008E544000859450008854400082B
:103BF0007047FEE78068C007C00F70478068C00745
:103C0000C00F704780684007C00F7047C06800054C
:103C1000800F01D000207047012070470268072301
:103C20009B059A430A430260704710B54369042418
:103C3000214007248C40A3438A401343436110BDB5
:103C4000FEB5002400940194029443484149016068
:103C50000121C90441608460C460890001610425B8
:103C600045610476447684760826C6610146203193
:103C70000C701322920142622A0282620C73046366
:103C8000446384630C77C464FEF788FA002801D08B
:103C9000FDF7E6FF012000900194029469462E484A
:103CA000FEF79EF8002801D0FDF7DAFF2B480090C0
:103CB000019569462848FEF793F8002801D0FDF7E2
:103CC000CFFF27480090019669462348FEF788F801
:103CD000002801D0FDF7C4FF224800900C2001907D
:103CE00069461D48FEF77CF8002801D0FDF7B8FFB3
:103CF0001D4800901020019069461748FEF770F8A3
:103D0000002801D0FDF7ACFF184800901420019066
:103D100069461148FEF764F8002801D0FDF7A0FFBE
:103D2000134800901820019069460B48FEF758F898
:103D3000002801D0FDF794FF0E4800901C20019050
:103D400069460548FEF74CF8002801D0FDF788FFCA
:103D5000FEBD0000002401407400002002000004A9
:103D6000040000080800000C1000001020000014DF
:103D7000400000188000001C08B50848816B012233
:103D800011438163806B104000900022114609208E
:103D9000FEF780FE0920FEF771FE08BD001002400C
:103DA000F0B587B0142102A8FCF725FB1B48416B36
:103DB000012529434163416B29400191426B022156
:103DC0000A434263426B0A400192426B08210A4354
:103DD0004263406B08400190114E0022072130469B
:103DE000FEF7E6FD0F4F012203213846FEF7E0FD06
:103DF00007200290039500240494059402A93046FC
:103E0000FEF734FD0320029003950494059402A963
:103E10003846FEF72BFD07B0F0BD00000010024051
:103E200000040050000C005010B588B00024049429
:103E3000059406940794019402940394144813493A
:103E400001601449416084601349C1600461846168
:103E5000FFF77EFA002801D0FDF702FF01200003E2
:103E6000049004A90A48FFF7DDFA002801D0FDF705
:103E7000F7FE20200190039401A90548FFF738FAC6
:103E8000002801D0FDF7ECFE08B010BD0004004092
:103E900034010020FF310000CF07000010B51848A2
:103EA000164901604B210902416000218160C16017
:103EB00001610C2242618161C161016241628162E2
:103EC000FFF7B2FD002801D0FDF7CAFE00210C4823
:103ED000FFF710FC002801D0FDF7C2FE00210848C2
:103EE000FFF7E4FB002801D0FDF7BAFE0448FFF716
:103EF000BDFB002801D0FDF7B3FE10BD0038014026
:103F000080010020FEE77047704710B5FEF75CFDAA
:103F100010BD30B591B0342104A8FCF76CFA002430
:103F2000009401940294039401204002FEF7B6FD30
:103F300002250495E80107900894402009900B950C
:103F40000C950D9408200E90032040040F90280734
:103F5000109004A8FEF7A0FF002801D0FDF780FE16
:103F60000720009001950294039402216846FEF711
:103F700071FE002801D0FDF773FE11B030BD70470F
:103F800010B50248FFF7C6FA10BD0000340100204A
:103F900070B502681B4B1C4E984201D0B04203D151
:103FA0007024A2434C682243184C194D984208D003
:103FB000B04206D0174EB04203D0A04201D0A84272
:103FC00004D103263602B243CE6832438026B24380
:103FD0004E69324302608A68C2620A68826298420D
:103FE00003D0A04201D0A84201D109690163012197
:103FF00041610169C90703D00169490849000161AC
:1040000070BD0000002C014000040040004401404D
:10401000004801400020004030B58468FF252D0293
:10402000AC431B0213430B432343836030BD0000AA
:104030008268034B1A400A4307210A438260704793
:104040008FFFCFFF30B5036A046A6408640004621E
:104050008469F025AC43120122430A24A3430B4395
:104060008261036230BD30B5036A046A1025AC4337
:10407000046284690F252D03AC4312032243A0245C
:10408000A343090119438261016230BDF8B50446BA
:10409000416E4034002915D00068816809014D0F38
:1040A0008068400F094E3746315C083F385CC000DD
:1040B000FCF7A3F96085785D715DC000FCF79DF9A0
:1040C0002085F8BD012060852085F8BD6449000881
:1040D00010B5018D090707D501684A680123DB0384
:1040E0009A43836B1A434A60018DC90707D0016860
:1040F0004A6801235B049A43C36A1A434A60018DEC
:10410000890707D501684A6801231B049A43036B9A
:104110001A434A60018D490707D501684A6801239F
:104120009B049A43436B1A434A60018DC90607D525
:1041300001688A6801231B039A43C36B1A438A6090
:10414000018D890607D501688A6801235B039A43BC
:10415000036C1A438A60018D490612D501684B68C9
:1041600001221205446C934323434B60416C9142FE
:1041700007D101684A6803235B059A43836C1A439D
:104180004A60018D090607D501684A680123DB04EE
:10419000C06C9A4302434A6010BD0000FEB504465D
:1041A0002546002680352E61FEF708FC0190206828
:1041B000006820270007002819DA2648009000220E
:1041C00039042046019B00F02DFA00280FD0EFF3B0
:1041D0001081012080F310882068026880239A43B0
:1041E000026081F31088AF602E710320FEBD20684D
:1041F0000068400727D51748009001210022890553
:104200002046019B00F00EFA00281CD0EFF310812D
:10421000012080F3108820680268FF2321339A432D
:10422000026081F31088EFF31081012080F3108881
:104230002068826852085200826081F31088EF6023
:104240002E710320FEBDAF60EF60E66626672E711B
:104250000020FEBDFFFFFF0110B5806A002201466D
:104260004031CA83CA82FFF76AFA10BD10B5EFF376
:104270001082012181F3108801680B68FF2421342A
:10428000A3430B6082F31088EFF31082012181F3C6
:10429000108801688B680D4C23408B6082F3108876
:1042A000C16E01290AD1EFF3108281F310880168F1
:1042B0000B681024A3430B6082F3108820228C210A
:1042C0000A500021C166416710BD0000FEFFFFEFEC
:1042D00010B5EFF31082012181F3108801680B689B
:1042E0004024A3430B6082F31088202288210A50C7
:1042F00000218167FFF77CFC10BD0000F8B5044683
:104300000025A1682069E269014360691043014307
:1043100020680268534B1A400A43026020684168D3
:10432000032212039143E26811434160A069216AAC
:104330000143206882684C4B1A400A43826020681F
:10434000C16A626A090909011143C16247492068CB
:10435000884214D1464840698007800F07D0012861
:1043600009D0022805D0032807D010200DE0002036
:104370000BE0022009E0042007E0082005E03D49A9
:10438000884201D1002000E010200122E369D2031D
:1043900039493A4E3A4F934230D1002822D0022870
:1043A00024D0042824D0082801D000220125002A86
:1043B0004ED0606A4000315A1046FCF71EF8616822
:1043C00040004A088018FCF718F801461039B94235
:1043D00012D82B49491C01400007420F0A432068AC
:1043E000C26035E0FEF7F6FC0246E0E70A46DEE78B
:1043F000FEF704FD0246DAE7012529E000281CD07B
:1044000002281ED004281ED0082801D00022012531
:10441000002A1DD0606A4000315A1046FBF7EDFFBC
:1044200061684A088018FBF7E8FF01461039B94275
:104430000DD8216880B2C8600AE0FEF7CBFC0246C6
:10444000E6E70A46E4E7FEF7D9FC0246E0E7012585
:104450000121204640304185018500206067A0672A
:104460002846F8BDF369FFCFFFF4FF110038014083
:1044700040100240004400400024F4004449000879
:10448000EFFF000010B588210958212910D10146FD
:104490004031CA8A002A0CD0026D03681288D20506
:1044A000D20D9A62026D921C0265C88A401EC882B3
:1044B00010BDEFF31082012181F3108801680B68B1
:1044C0008024A3430B6082F31088EFF31081012254
:1044D00082F310880068026840231A43026081F367
:1044E000108810BD10B588210958212919D101461D
:1044F00040314A8D13E0CB8A002B13D00368DC696E
:1045000024060AD5046D2488E405E40D9C62036D3D
:104510009B1C0365CB8A5B1ECB82521E92B2002A83
:10452000E9D110BDEFF31082012181F310880168F9
:104530008B680124E405A3438B6082F31088EFF3BA
:104540001081012282F310880068026840231A4318
:10455000026081F3108810BD10B588210958212907
:104560000ED101464031CA8A002A0AD0026D036882
:1045700012789A62026D521C0265C88A401EC88277
:1045800010BDEFF31082012181F3108801680B68E0
:104590008024A3430B6082F31088EFF31081012283
:1045A00082F310880068026840231A43026081F396
:1045B000108810BD10B588210958212917D101464E
:1045C00040314A8D11E0CB8A002B11D00368DC69A1
:1045D000240608D5046D24789C62036D5B1C03657A
:1045E000CB8A5B1ECB82521E92B2002AEBD110BD49
:1045F000EFF31082012181F3108801688B68012498
:10460000E405A3438B6082F31088EFF3108101224D
:1046100082F310880068026840231A43026081F325
:10462000108810BDFFB581B00A9E04460D4627468E
:10463000803734E0701C32D0FEF7C0F90499401A7C
:10464000B04219D8002E17D020680168490726D536
:10465000802D24D0402D22D0C169C94309070DD433
:104660002068082505622046FFF700FE3D61002016
:104670003871012005B0F0BD0320FBE7C069C043DD
:1046800000050CD401202168C00208622046FFF713
:10469000EDFD20203861002038710320EAE7206812
:1046A000C1692846884305D0002003998842C1D0BB
:1046B0000020DFE70120F8E710B50248FFF740F8D7
:1046C00010BD000080010020F8B5040C8BB2264616
:1046D00082B25E43104658430D0C370C360400215D
:1046E0008019164679416E43370C360480192646E8
:1046F00079416E438919F8BD4900CA02024310008E
:1047000000D004204A0D01D001221043044A490D73
:10471000914201D102210843012800D105207047B0
:10472000FF0700008307FF22DB0E9A408907090E6E
:104730009940002808DB830809489B001818036883
:1047400093430B43036070470007000F083883084A
:1047500004489B001818C36993430B43C361704717
:1047600000E400E000ED00E030380A2801D201202A
:1047700070470020704700008AB0FEF72DF9FFF760
:10478000C8FBFFF70DFBFFF7F7FAFFF759FAFFF742
:104790004BFBFFF783FB4E48FDF764FA4D48FEF7ED
:1047A00019FE4D4C012211462046FEF701F9012267
:1047B00002212046FEF7FCF8012204212046FEF7E4
:1047C000F7F8464F012211463846FEF7F1F800226D
:1047D00002213846FEF7ECF8082241493C48FDF733
:1047E0005BFEFF209130FEF72FF83E4E3078012817
:1047F00019D10020307000243948A5004059FCF739
:1048000089FAFCF731FA384A384BFCF709F90022EB
:10481000374BFBF7E1FEFBF7A1FE31492031485150
:10482000641C082CE8DB002201213846FEF7C0F8A2
:10483000012202213846FEF7BBF808222849244805
:10484000FDF72AFEFF209130FDF7FEFF30780128AA
:104850001DD1002030700024214D234F2E462036DC
:10486000A0002858FCF756FAFCF7FEF93A461F4B11
:10487000FCF7D6F800221E4BFBF7AEFEFBF76EFEF0
:104880002146083189007050641C082CE8DB0024A4
:10489000134D2035202102A8FBF7ADFDA0002858BC
:1048A000FCF7E2F901910090224612A102A8FBF761
:1048B00089FC002804DD82B202A91248FFF736F90C
:1048C000C820FDF7C1FF641C102CE3DB69E7000082
:1048D000740000203401002000040050000C00503F
:1048E00014000020000000206666666666660A40C6
:1048F00000F4AF40494E25643D25312E33660D0A44
:10490000000000008001002010B500290AD00878BE
:10491000002807D005487844FCF7FCFF002801D0A8
:10492000002010BD0248784410BD0000EA010000DC
:10493000E201000003B402487844844603BC6047A7
:104940002BC6FFFF010002000400060008000A0059
:104950000C00100020004000800000010101010354
:104960000701000008040204080101010000000022
:104970000000000000000000000000000000000037
:104980000000000000000000000000000100000026
:104990000200000003000000040000000600000008
:1049A00007000000080000000900000000000000EF
:1049B00000000000000000000000000001000000F6
:1049C00002000000030000000400000080807F7EE1
:1049D0007D7C7B7A79787776767574737271717075
:1049E0006F6E6E6D6C6C6B6A6A6968686766666527
:1049F0006464636362616160605F5F5E5E5D5D5CB5
:104A00005C5B5B5A5A595958585757565655555525
:104A10005454535352525251515050504F4F4F4E85
:104A20004E4D4D4D4C4C4C4B4B4B4A4A4A494949D3
:104A30004848484747474746464645454544444415
:104A40004443434343424242424141410240000009
:104A5000000000A00000000005400000000000C8A9
:104A6000000000000C4000000000409C000000001E
:104A7000194000000020BCBE0000000034400000CF
:104A8000BFC91B8E00000004B5400000504BCFD0C2
:104A90006607E2CF010000006C4100003E8251AA8F
:104AA000DFEEA73401000000D9420000DCB5A0E22F
:104AB0003A301F97FFFFFFFFB4450000FD25A0C857
:104AC000E9A3C14FFFFFFFFFFF3F00000000008090
:104AD00000000000FF3F0000000000800000000018
:104AE0001C4B000800000020140000000401000816
:104AF000304B00081400002064080000200100086A
:104B00001C00000043000000F8FFFFFF0C00000045
:104B10000E0000000F0000002E000000000000004A
:104B20000100000004000000000000000024F40068
:04000005080000C12E
:00000001FF
